:020000040800F2
:10000000103E002029470008F50B0008F70B0008F8
:10001000FB0B0008FF0B0008030C000800000000A9
:10002000000000000000000000000000070C0008B5
:10003000090C0008000000005B1B01085D68000857
:100040004347000843470008434700084347000868
:100050004347000843470008D74500080B460008FF
:100060005346000899460008E14600084347000847
:100070004347000843470008434700084347000838
:100080004347000843470008434700084347000828
:100090004347000843470008434700081911000878
:1000A000434700080B150008434700084347000872
:1000B000791300082D120008733100084347000827
:1000C00043470008434700084347000843470008E8
:1000D00043470008C76A00086F1A00085522000845
:1000E00079110008434700084347000843470008C8
:1000F00043470008434700084347000843470008B8
:100100004347000843470008232F000843470008DF
:100110004347000843470008434700084347000897
:100120004347000843470008434700084347000887
:100130004347000843470008434700084347000877
:100140004347000843470008434700084347000867
:100150004347000843470008434700084347000857
:100160004347000843470008434700084347000847
:100170004347000843470008434700084347000837
:10018000434700084347000800F002F800F06FF80A
:100190000AA090E8000C82448344AAF10107DA45E2
:1001A00001D100F064F8AFF2090EBAE80F0013F0C5
:1001B000010F18BFFB1A43F0010318475C2D010023
:1001C0007C2D01000A444FF0000C10F8013B13F0A5
:1001D000070408BF10F8014B1D1108BF10F8015BA0
:1001E000641E05D010F8016B641E01F8016BF9D193
:1001F00013F0080F1EBF10F8014BAD1C0C1B09D1EA
:100200006D1E58BF01F801CBFAD505E014F8016B5B
:1002100001F8016B6D1EF9D59142D6D370470000ED
:100220000023002400250026103A28BF78C1FBD8FF
:10023000520728BF30C148BF0B607047642910F0D7
:100240001381002070471FB512F0BFFB10F074FB44
:1002500004000020002111F02BFE401C60600020F3
:10026000002111F00FFEE0601FBD10B510BD10F0B1
:100270003DFB1146FFF7E7FF00F031FB10F0C0FD3A
:1002800003B4FFF7F2FF03BC06F07AFB10B5FEA043
:1002900006F06BFCFD4806F068FCFC49C91EC87BF3
:1002A00006F071FCF9480D3006F05FFCF749C91EF5
:1002B000087F06F068FCF64806F057FCF34821304A
:1002C00006F053FCF34806F050FC06F065FC10BD48
:1002D0000EB500244CE000BF00BF00BF06F01AFEC0
:1002E000044600BF00BFEC480078401CEA49087093
:1002F00000BF00BF204606F011FE00BF00BF00BFD8
:10030000FFF7C4FF00BF00BF00BF06F003FE0446B6
:1003100000BF00BFE0480078401EDF490870084673
:100320000078A0B9DD480088002809DD00BF00BFC3
:10033000204606F0F3FD00BF00BF09F097F80DE07E
:1003400000BF00BF204606F0E9FD00BF06E000BF89
:1003500000BF204606F0E2FD00BF00BF00BF02A8BC
:1003600000210B460122CDE9001008460EF07BFF6C
:10037000B1E70EB530E0CA48807F48B9C84890F868
:10038000200028B90121C6488177012003F091FFA0
:10039000C348007B40B9C248807B28B90120C049CE
:1003A0000873002003F085FFBD4890F8300050B975
:1003B000BB4890F8320030B90121B94880F83010BC
:1003C000022003F076FF02A800210B460122CDE9AE
:1003D000001008460EF047FFCDE70EB50BE0B14820
:1003E00003F01CF802A8002114230A46CDE90010EE
:1003F00008460EF038FFF2E70EB50BE0A94803F00F
:1004000007FC02A8002105230A46CDE90010084692
:100410000EF029FFF2E70EB5002451E000BF00BF47
:1004200000BF06F077FD044600BF00BF9A48007881
:10043000401C9949087000BF00BF204606F06EFDC1
:1004400000BF00BF00BF9648C38C828A418896A037
:100450000FF0B6FF00BF00BF00BF06F05BFD044613
:1004600000BF00BF8C480078401E8B4908700846CA
:100470000078A0B989480088002809DD00BF00BFC6
:10048000204606F04BFD00BF00BF08F0EFFF0DE077
:1004900000BF00BF204606F041FD00BF06E000BFE0
:1004A00000BF204606F03AFD00BF00BF00BF02A813
:1004B000002132230A46CDE9001008460EF0D3FE93
:1004C000ACE70EB50BE000F0BFFD02A800214FF431
:1004D000FA730A46CDE9001008460EF0C4FEF2E7B2
:1004E00030B58BB00446002500BF06F0DBFB0AA840
:1004F0000CF045FB0AAA0121084608F0CEFB00BF1C
:1005000000BF00BF06F006FD054600BF00BF624801
:100510000078401C6049087000BF00BF284606F004
:10052000FDFC00BF00BF00BF0AA803210022059206
:10053000CDE906210890104680210C22644BCDE9BC
:100540000132CDE9031006200023AFF2890261A138
:10055000009063480CF0ECFE0AA8032100220592EB
:10056000CDE906210890104680210C225D4BCDE993
:100570000132CDE9031006200023AFF265125AA123
:1005800000905C480CF0D4FE0AA8032100220592DA
:10059000CDE906210890104680210C22564BCDE96A
:1005A0000132CDE9031005200023AFF2B31253A1AD
:1005B000009056480CF0BCFE0AA8032100220592C8
:1005C000CDE906210890104680210C22504BCDE940
:1005D0000132CDE9031005200023AFF201224DA125
:1005E000009051480CF0A4FE0AA8032100220592B5
:1005F000CDE906210890104680210C224B4BCDE915
:100600000132CDE9031005200023AFF2992248A161
:1006100000904D480CF08CFE0AA8032100220592A0
:10062000CDE906210890104680210C22474BCDE9E8
:100630000132CDE9031006200023AFF26B3244A152
:10064000009049480CF074FE0AA930480EF089FA6F
:100650000AA945480EF085FA00BF00BF00BF06F0AA
:1006600059FC054600BF00BF0B480078401E0A49F0
:1006700008700846007828B90848008800287EDD00
:1006800000BF73E082E07AE047505300EB15002092
:100690005616002024160020840100204801002066
:1006A000441500200600002073746570735F783A6B
:1006B00025640973746570735F7A3A2564097374ED
:1006C0006570735F74686574613A25640D0A000093
:1006D000700500206C6564207461736B000000007D
:1006E000AC040020340800207072696E74207461BC
:1006F000736B000070070020F80A0020636F6E74AF
:10070000726F6C207461736B00000000340A00206B
:10071000BC0D0020696E7075742063617074757211
:1007200065207461736B0000F80C002080100020BD
:10073000636162696E657420636F6E74726F6C20A2
:100740007461736B00000000BC0F00204413002094
:1007500067707320646174612075706461746520D2
:100760007461736B000000008012002000BF2846F7
:1007700006F0D4FB00BF00BF08F078FE0DE000BF1C
:1007800000BF284606F0CAFB00BF06E000BF00BF5E
:10079000284606F0C3FB00BF00BF00BF0AA9002027
:1007A0000CF01AFF0BB030BD10B50021EA4805F07F
:1007B0006DF80020E9490880488088730873487301
:1007C0000021E74805F062F80020E4494882002152
:1007D000E248818280F820108177C177E14805F0F6
:1007E00055F80020DD4988840021DC48C18480F868
:1007F000321080F8301080F8311010BD10B54FF471
:10080000167000F0A8FDD7492C3108600020D649A9
:1008100008600121D34805F039F800BFCF4890F8AF
:1008200038000028FAD10021CE4805F02FF840F218
:10083000DC5000F090FDC849C8620120CB49086037
:100840000121C54805F022F800BFC948006800280A
:10085000FBD1C649086000BFC54800680028FBD02E
:100860000021BD4805F012F810BD10B54FF4A0608E
:1008700003F07AFFA82005F0FDFF00F0C7FB4FF45E
:10088000E13006F08AF84FF4165001F07BF902F0DF
:1008900023FA02F0AFFAB7A00FF092FDBCA00FF060
:1008A0008FFD2921092002F0F3FA00F036FF03F052
:1008B00061FA53214FF6FF7002F0DCFB00F0DAFB27
:1008C00003F0E8FD03F052FE0120BB490860BB497C
:1008D000C1F88802FFF792FFFFF766FF10BD10B561
:1008E0008AB00024FFF7C1FF09A807F0ADFF00BFE1
:1008F00000BF00BF06F00EFB044600BF00BFB048BB
:100900000078401CAE49087000BF00BF204606F0CA
:1009100005FB00BF00BF00BF09A80321002205920C
:10092000CDE906210890104680210C22A54BCDE987
:100930000132CDE9031003200023AFF25B42A2A1F4
:100940000090A4480CF0F4FC00BF00BF00BF06F00C
:10095000E1FA044600BF00BF99480078401E98495C
:10096000087008460078A0B99B480088002809DD77
:1009700000BF00BF204606F0D1FA00BF00BF08F05C
:1009800075FD0DE000BF00BF204606F0C7FA00BFAE
:1009900006E000BF00BF204606F0C0FA00BF00BF5F
:1009A00000BF09A808F019FA00200AB010BD0246DD
:1009B000002003E000231354431CD8B20728F9DBBE
:1009C000002003E000230B54431CD8B20328F9DBBA
:1009D00070472DE9F0412DED028BB0EE408A0646BE
:1009E0000D4600270024BDEEC80A10EE104A00EEA6
:1009F000904AF8EEE00A78EE600A9FED781A60EE11
:100A0000810AB0EE600A00F009FABDEEC00A10EEED
:100A1000107A224672A130460FF0DEFC3A4670A1F1
:100A200028460FF0D9FCBDEC028BBDE8F08100B583
:100A300087B00020059006900490029003900090EB
:100A40000190684866A1026802A80FF0C5FC6648DC
:100A500063A1026868460FF0BFFC64A006F085F849
:100A60006348D0ED000AB0EE600A04A905A8FFF7BC
:100A7000B0FF05A806F079F804A806F076F804A9F6
:100A800005A8FFF794FF5A48D0ED010AB0EE600ABE
:100A900004A905A8FFF79DFF05A806F066F804A8BD
:100AA00006F063F804A905A8FFF781FF5048D0EDD0
:100AB000020AB0EE600A04A905A8FFF78AFF05A89C
:100AC00006F053F804A806F050F804A905A8FFF7AB
:100AD0006EFF4748D0ED030AB0EE600A04A905A8EE
:100AE000FFF777FF05A806F040F804A806F03DF8E8
:100AF00004A905A8FFF75BFF3D48D0ED040AB0EE5E
:100B0000600A04A905A8FFF764FF05A806F02DF800
:100B100004A806F02AF804A905A8FFF748FF3448FE
:100B2000D0ED050AB0EE600A04A905A8FFF751FF51
:100B300005A806F01AF804A806F017F804A905A8F5
:100B4000FFF735FF02A806F010F8684606F00DF82A
:100B500006F022F807B000BD000001404415002057
:100B6000000400400044014094024142848240421B
:100B700000824142696E697469616C697A696E6765
:100B8000206D7075393235302E2E2E0D0A00000082
:100B90006D70753932353020696E697469616C69C0
:100BA0007A6174696F6E20636F6D706C65746564D3
:100BB0002E2E2E0D0A0000008C0240420000404202
:100BC00084010020AC02002073746172742074618F
:100BD000736B0000E8010020480100200000C842BB
:100BE00025640000D4000020D8000020494D5500A5
:100BF0008C170020704700BFFEE700BFFEE700BF74
:100C0000FEE700BFFEE77047704700000CB500200C
:100C1000019000907648006840F480307449086084
:100C200000BF7348006800F4003000900198401C39
:100C30000190009818B90198B0F5A04FF1D16C4817
:100C4000006800F4003010B10120009001E00020A5
:100C500000900098012846D165484030006840F077
:100C600080506349403108606248006840F4404069
:100C7000604908605E48083000685D4908310860D6
:100C80000846006840F4004008600846006840F4E8
:100C9000A05008605848091F0860081F006840F00D
:100CA0008070091F086000BF5148006800F00070A4
:100CB0000028F9D040F20570504908604C480830CF
:100CC000006820F003004A490831086008460068BF
:100CD00040F00200086000BF45480830006800F09E
:100CE0000C000828F8D10CBD10B54548006840F448
:100CF0007000434908603E48006840F001003C49EC
:100D0000086000203A4908310860394800683D49C8
:100D10000840374908603C48091D0860081F006802
:100D200020F48020091F0860002031490C31086040
:100D3000FFF76CFF4FF0006031498039086010BD4B
:100D400070B500200022022300240221284D08351E
:100D50002D6805F00C0020B1042806D0082834D1F5
:100D600007E02A4D2A4E356033E02A4D284E356083
:100D70002FE01F4D2D1D2D68C5F380541C4D2D1DDA
:100D80002D6805F03F0154B1224DB5FBF1F5184E29
:100D9000361D3668C6F3881605FB06F209E01B4DC2
:100DA000B5FBF1F5124E361D3668C6F3881605FB05
:100DB00006F20F4D2D1D2D68C5F301456D1C6B000E
:100DC000B2FBF3F5124E356003E0104D104E356066
:100DD00000BF00BF064D08352D68C5F303150E4E44
:100DE000705D0B4D2D68C540094E356070BD00002B
:100DF000003802400070004019544007003C024097
:100E000088ED00E0FFFFF6FE103000240024F4001F
:100E10001000002040787D0114000020B5EEC00ACB
:100E2000F1EE10FA03D2F1EE400AB0EE600A70471C
:100E3000F0EE400A9FED6C0A20EE801ADFED6B1A8F
:100E400081EE210A704730B5024600240023107855
:100E5000557828449578441908784D7828448D7839
:100E600043199C4201D1002030BD0120FCE7C1782C
:100E700000EE901AF8EE600A9FED5D1A70EEC10A5E
:100E8000F2EE041A80EEA11A817800EE901AF8EEC4
:100E9000600ADFED571A70EEE10A71EE200A417820
:100EA00001EE101AB8EE411ADFED511A31EE611A57
:100EB000F2EE041A41EE210AB0EE600A01782D2903
:100EC00003D1F1EE400AB0EE600A704701463029C6
:100ED00003DB392901DC012070470020FCE70146D3
:100EE000202901D1012070470020FCE770B52DEDCD
:100EF000088B0546002400E0641C285DFFF7EFFF27
:100F00000028F9D1285D2D2802D14FF0FF3000E0F4
:100F100001200646285D2D2802D0285D2B2800D10F
:100F2000641C9FED348B17E0295DA1F1300011F0B6
:100F300057FA41EC1A0B9FED310B53EC102B51EC8F
:100F4000180B11F0B3FA41EC1B0B53EC1A2B10F0F9
:100F5000F7FF41EC180B641C285DFFF7B7FF002872
:100F6000E2D1285D2E2800D1641C9FED269B21E054
:100F7000295DA1F1300011F033FA41EC1A0B9FED1D
:100F80001F0B53EC102B51EC180B11F08FFA41ECA6
:100F90001B0B53EC1A2B10F0D3FF41EC180B9FEDF9
:100FA000170B53EC102B51EC190B11F07FFA41EC9D
:100FB000190B641C285DFFF789FF0028D8D1304643
:100FC00011F00EFA41EC1B0B53EC182B11F06EFADA
:100FD00041EC1A0B53EC192B11F06EF841EC100B8D
:100FE000BDEC088B70BD0000D00F494000003443B9
:100FF000000040420000000000000000000000006F
:1010000000002440000000000000F03F1CB501215A
:10101000022003F03DFF4FF40070009001208DF896
:10102000040000208DF8060003208DF80500012043
:101030008DF8070069460D4803F08CFC4FF40071F1
:101040000A4803F003FD1CBD0948006808B90120E7
:1010500000E000200649086070470020044908604D
:1010600070470120024908607047000000040240F8
:10107000A482404200B585B00121102003F008FF92
:101080004FF40850009000208DF8040003208DF8E4
:10109000050000208DF807006946464803F05AFC19
:1010A0004FF49040009000208DF8070069464148B9
:1010B00003F050FC0121880303F044FF09210420C0
:1010C00004F04BF80D21042004F047F84FF40850C9
:1010D000029000208DF80C000C208DF80D000120EE
:1010E0008DF80E0002A805F02DFB17208DF81000DA
:1010F00000208DF8110002208DF8120001208DF8DB
:10110000130004A803F035FB28208DF8100004A874
:1011100003F02FFB05B000BD10B507F02BFC4FF41A
:10112000007005F075FB88B12348006828B123489A
:101130000068401C2149086004E020480068401E07
:101140001E4908604FF4007005F06DFB202005F08B
:101150005FFB70B11A48006820B90020194981F876
:10116000360003E00120174981F83600202005F001
:101170005AFB07F010FC10BD10B507F0FBFB4FF455
:10118000005005F045FB90B10B480C30006828B1C9
:101190000D480068401C0C49086004E00A480068DB
:1011A000401E094908604FF4005005F03CFB07F071
:1011B000F2FB10BD001002402C0242422800002029
:1011C0001482414244150020240000207FB50546CA
:1011D0000C460121022003F0A4FE0295ADF8044064
:1011E0000020ADF80C00ADF8060001A9FE4804F09F
:1011F000C4FA0021FC4804F049FB01221146FA48D8
:1012000004F05CFF0121F84804F080FF1D208DF8F8
:10121000000000208DF8010003208DF8020001205D
:101220008DF80300684603F0A4FA7FBD10B507F0FF
:10123000A1FB0121EC4804F058FF002857D002F030
:10124000CCFDEA48406900F0C000C02806D1E8485B
:10125000808A401E81B2E64881820BE0E348406903
:1012600000F0C000402805D1E148808A401C81B2CE
:10127000DF488182DE48818AC08A81420CD1DC4805
:1012800090F82000012803D10421D948C1772AE031
:101290000521D748C17726E0D548818A008B814255
:1012A00008D1D34890F82000012803D10521D04867
:1012B000C17718E0CE48C07F052814D1CC48818A78
:1012C000408B081A0FD10021C948C17780F820103F
:1012D000C54804F0DBFAC7484088C5494882002168
:1012E000C348817741840121BF4804F00FFF07F014
:1012F00052FB10BD7FB505460C460121084603F0A0
:1013000010FE0295ADF804400020ADF80C00ADF8D9
:10131000060001A94FF0804004F02FFA0122114687
:10132000900704F0CBFE0121880704F0EFFE1C209B
:101330008DF8000000208DF8010003208DF80200D8
:1013400001208DF80300684603F013FA0121880795
:1013500004F09CFA7FBD0146A74890FBF1F000EE37
:10136000900AF8EEE00AB0EE600AFCEEC00A10EE59
:10137000900A401E80B2704710B507F0FBFA0121B9
:10138000880704F0B2FE00286FD00121880704F01E
:10139000BDFE9748C07F032804D0042809D0052843
:1013A00018D10BE09248408C001D01B29048418456
:1013B00010E040F6B8318E4841840BE08C48B0F91B
:1013C0002200002805DD8A48408C001F01B28848B1
:1013D000418400BF00BF864890F8200038B184499E
:1013E000498C88B2FFF7B7FF7F492C3108608048ED
:1013F00090F83100032804D0042809D0052818D11A
:101400000BE07B48808E401C01B27948818610E059
:101410004FF49661764881860BE07548B0F9340048
:10142000002805DD7248808E401E01B2704881861A
:1014300000BF00BF6E4890F8320030B16C49898E11
:1014400088B2FFF788FF6D4908606948407B032830
:1014500004D004280AD0052819D10CE06448008A79
:10146000093000B26249088211E01BE04FF4965047
:101470005F4908820BE05E48B0F91000002805DDE6
:101480005B48008A093800B25949088200BF00BF92
:101490005748807B30B15649098A88B2FFF75BFF15
:1014A0005749C86207F077FA10BD7FB505460C466C
:1014B0000121084603F046FD0295ADF804400020E6
:1014C000ADF80C00ADF8060001A94D4804F055F93F
:1014D00000214B4804F0DAF901221146484804F093
:1014E000EDFD0121464804F011FE19208DF80000A1
:1014F00000208DF8010003208DF8020001208DF8F6
:101500000300684603F035F97FBD10B507F032FAE5
:1015100001213B4804F0E9FD002853D002F064FCAF
:101520003848006800F00300012805D130484088A1
:10153000401C2F4948800AE03248006800F0030050
:10154000032804D12A484088401E29494880284859
:1015500040882749898888420BD12548807B01280B
:1015600003D104202249487327E00520204948730D
:1015700023E01F484188C088814207D11C48807BF6
:10158000012803D105201A49487316E01848407B0A
:10159000052812D1164841880089081A0DD114492E
:1015A000487388730021164804F070F911480088C8
:1015B0000F4908800020088208730121104804F0B8
:1015C00091FD76E001210D482C3804F08EFD0028B5
:1015D0006FD002F010FC0C48006800F020002028BA
:1015E00019D10348C08C11E0000400400000024003
:1015F000441500200000002080841E002C4401407F
:10160000000001401404024014080240401C81B252
:101610004D48C1840AE04D48006800F0200028B918
:101620004948C08C401E81B24748C1844648C18C9D
:10163000008D81420ED1444890F83200012804D137
:101640000421414880F831102FE005213E4880F800
:1016500031102AE03C48C18C408D814209D13A4882
:1016600090F83200012804D10521374880F8311064
:101670001BE0354890F83100052816D13248C18C5E
:10168000808D081A11D100212F4880F8311080F880
:1016900032102F4804F0FAF82E4880882A498884AE
:1016A00000212948818680F830100121284804F063
:1016B00019FD07F070F910BD7FB505460C460121F4
:1016C000480403F03FFC0295ADF804400020ADF85B
:1016D0000C00ADF8060001A91D4804F04EF80021E9
:1016E0001B4804F0D3F801221146194804F0E6FC27
:1016F0000121174804F00AFD19208DF80000002090
:101700008DF8010003208DF8020001208DF8030000
:10171000684603F02EF87FBD704710B5142140F2E3
:10172000E730FFF753FD292140F2E730FFF7E2FDF4
:10173000292140F2E730FFF7B8FE292140F2E730D7
:10174000FFF7BAFF10BD0000441500201408024046
:10175000004401400000002010B588B0044601217B
:10176000082003F095FB0121480403F0DAFB07226F
:101770000521EB4803F079F907220621E84803F038
:1017800074F96020069002208DF81C008DF81D0071
:1017900000208DF81E0001208DF81F0006A9E048EA
:1017A00003F0D8F802940020ADF80C00ADF80E005C
:1017B000ADF81000ADF814000C20ADF8120002A92D
:1017C000D84803F06AFD0121D64803F0EEFD01225E
:1017D00040F22551D34803F09EFE26208DF80400E8
:1017E00000208DF805008DF8060001208DF8070017
:1017F00001A802F0BEFF08B010BD002004E00021E7
:10180000C94A1154411CC8B20B28F8DB0021C74A51
:101810001170704710B52DED088BC34840785128E2
:1018200002D053287ED19DE0BF49C978090209B290
:10183000BD4A927841EA020010F0D2FD41EC1B0B48
:101840009FEDBB0B53EC102B10F036FC41EC1A0B48
:101850009FEDB90B53EC102B10F028FE41EC190B47
:101860009FEDB70B53EC102B10F020FE41EC180B42
:1018700010F034FBB4490860AB494979090209B258
:10188000A94A127941EA020010F0AAFD41EC1B0BB3
:101890009FEDA70B53EC102B10F00EFC41EC1A0B34
:1018A0009FEDA50B53EC102B10F000FE41EC190B33
:1018B0009FEDA30B53EC102B10F0F8FD41EC180B2F
:1018C00010F00CFBA14908609749C979090209B2D7
:1018D000954A927941EA020010F082FD41EC1B0B1F
:1018E0009FED930B53EC102B10F0E6FB41EC1A0B21
:1018F0009FED910B53EC102B10F0D8FD41EC190B20
:101900009FED8F0B53EC102B10F0D0FD41EC180B1A
:1019100010F0E4FA8E4908608349497A090209B255
:10192000814A00E09FE0127A41EA020010F058FD7F
:1019300041EC1A0B9FED870B53EC102B10F0BCFB06
:1019400041EC190B9FED850B53EC102B10F0F8FABE
:1019500041EC180B10F0C2FA82490860012082495C
:10196000087080E07049C978090209B26E4A92781D
:1019700041EA020010F034FD41EC1A0B9FED6C0BB4
:1019800053EC102B10F098FB41EC190B9FED770BEB
:1019900053EC102B10F08AFD41EC180B10F09EFA5E
:1019A0007449086060494979090209B25E4A1279AE
:1019B00041EA020010F014FD41EC1A0B9FED5C0BA4
:1019C00053EC102B10F078FB41EC190B9FED670BDB
:1019D00053EC102B10F06AFD41EC180B10F07EFA5E
:1019E000654908605049C979090209B24E4A92799D
:1019F00041EA020010F0F4FC41EC1A0B9FED4C0B95
:101A000053EC102B10F058FB41EC190B9FED570BCA
:101A100053EC102B10F04AFD41EC180B10F05EFA5D
:101A2000564908604049497A090209B23E4A127A89
:101A300041EA020010F0D4FC41EC1A0B9FED450B7B
:101A400053EC102B10F038FB41EC190B9FED430BBE
:101A500053EC102B10F074FA41EC180B10F03EFA16
:101A60004049086000BF00BFBDEC088B10BD10B539
:101A700040F225512B4803F089FD00B32948001D91
:101A800000882949294A1278885428480078401C3F
:101A90002649087024480078552801D0FFF7ADFE8C
:101AA000224800780B280DD11F480078552807D10F
:101AB000FFF7B0FEFFF7A1FE01203149087001E0F9
:101AC000FFF79BFE10BD00BF1649098801F04001D9
:101AD0000029F9D01349091D0880704700B5024656
:101AE0001078FFF7F0FF5078FFF7EDFF00BD00B56D
:101AF000024603E01078FFF7E6FF521C107800283A
:101B0000F8D100BD00B50246002305E01078FFF7CC
:101B1000DAFF521C581CC3B20B2BF7DB00BD0000D0
:101B2000000C024000440040DC1500202C00002086
:101B3000000000000000E040000000000000104035
:101B40009A999999999923403000002034000020F7
:101B50003800002000000000004075400000000038
:101B600000003540480000202D000020000000004B
:101B700000806640400000203C000020440000201F
:101B80002E00002010B588B004460121022003F089
:101B90007FF90121880403F0C4F907220A21F948DA
:101BA00002F063FF07220B21F64802F05EFF4FF4BC
:101BB0004060069002208DF81C008DF81D0000206A
:101BC0008DF81E0001208DF81F0006A9ED4802F0D7
:101BD000C1FE02940020ADF80C00ADF80E00ADF887
:101BE0001000ADF814000C20ADF8120002A9E64870
:101BF00003F053FB0121E44803F0D7FB012240F23C
:101C00002551E14803F087FC27208DF804000120CE
:101C10008DF805008DF806008DF8070001A802F088
:101C2000A8FD08B010BD002004E00021D74A1154DF
:101C3000411C88B2D64909788842F6DB0021D44A93
:101C400011707047F0B52DED048B8BB0142106A8F0
:101C50000EF077FC0024002500260027142101A89F
:101C60000EF06FFC9FEDCB0AB0EE408A00BF09E09A
:101C7000C648005D2C2803D106A8C455781CC7B2FD
:101C8000601CC4B2C2480078401C8442F0DB0025CE
:101C9000F6E006A8405D401CC4B207E0BB48005D0A
:101CA00001A98855701CC6B2601CC4B206A9681C84
:101CB000085CA042F2DC0C2D4FD2DFE805F0064FA5
:101CC000545A5F656A7076B8C6CC01A80EF008FC5D
:101CD00000EE100AB8EEC08A9FEDAF0AC8EE000A07
:101CE000BCEEE00A10EE100AAC4908700846007815
:101CF00042F2107110FB01F000EE100AB8EEC00ABB
:101D000038EE400ADFEDA60A80EE201ABCEEC10ACA
:101D100010EE100AA14948700846007842F210718E
:101D200010FB01F000EE100AB8EEC00A78EE400A8F
:101D30009A484078642110FB01F000EE100AB8EEDA
:101D4000C00A30EEC00ABCEEC00A10EE100A934979
:101D50008870084600780830087083E09DF8040019
:101D60008E49C8707EE001A98C48001D0EF0C5FBAD
:101D700078E09DF804008949087473E001A9874858
:101D800011300EF0BAFB6DE09DF8040083494877EE
:101D900068E001A981481E300EF0AFFB62E001A9A6
:101DA0007E4826300EF0A9FB5CE001A80EF098FBFF
:101DB00000EE100AB8EEC08ABCEEC80A10EE100A97
:101DC00042F21071B0FBF1F0744981F82D00084621
:101DD00090F82D10BCEEC80A10EE100A42F21072F4
:101DE00002FB11006421B0FBF1F06C4981F82E0078
:101DF000084690F82D00114610FB01F000EE100A85
:101E0000B8EEC00A78EE400A644890F82E006421CB
:101E100010FB01F000EE100AB8EEC00A30EEC00A66
:101E2000BCEEC00A10EE100A5C4908861AE001A850
:101E3000FFF75CF8B0EE409AF0EE609A51EC190BA7
:101E400010F04CF8554948630CE09DF804005349E4
:101E500081F8380006E001A80EF042FB4F4981F8F6
:101E6000390000BF00BF04E0002001A98855701EA2
:101E7000C6B2002EF8DC00208DF80400681CC5B244
:101E8000781EA8423FF705AF0BB0BDEC048BF0BD48
:101E9000F0B52DED028B8BB0142106A80EF051FB8E
:101EA0000024002500260027142101A80EF049FB7C
:101EB0009FED380AB0EE408A00BF09E03348005D6C
:101EC0002C2803D106A8C455781CC7B2601CC4B224
:101ED0002F480078401C8442F0DB0025C6E0102D1E
:101EE00012DA06A8405D401CC4B207E02748005D36
:101EF00001A98855701CC6B2601CC4B206A9681C32
:101F0000085CA042F2DC13E0102D11D19DF82800EE
:101F1000401CC4B207E01D48005D01A98855701C33
:101F2000C6B2601CC4B29DF82800401DA042F2DC7D
:101F3000112D19D2DFE805F009191F383E444A5027
:101F4000565C62686E747A80860001A80EF0C8FA4A
:101F500000EE100AB8EEC00AB0EE408ABCEEC80A25
:101F600010EE100A0F49087072E001A80EF0B8FADE
:101F70000C4948706CE001A80EF0B2FA094988706B
:101F800066E0000000040240004800409416002073
:101F90004C0000200000000000401C4638160020C5
:101FA0000000C8421616002001A80EF099FAF9495F
:101FB000C8704DE001A80EF093FAF649087147E0A9
:101FC00001A80EF08DFAF349487141E001A80EF026
:101FD00087FAF04988713BE001A80EF081FAED49DB
:101FE000C87135E001A80EF07BFAEA4908722FE0CB
:101FF00001A80EF075FAE749487229E001A80EF031
:102000006FFAE449887223E001A80EF069FAE14909
:10201000C8721DE001A80EF063FADE49087317E0EC
:1020200001A80EF05DFADB49487311E001A9D94817
:102030000E300EF062FA0BE001A9D64813300EF014
:102040005CFA05E001A9D34818300EF056FA00BF3B
:1020500000BF04E0002001A98855701EC6B2002E02
:10206000F8DC00208DF80400681CC5B2BD42FFF604
:1020700036AF0BB0BDEC028BF0BDF0B52DED048B8F
:1020800089B0142104A80EF05CFA00240025002673
:10209000002700200190029003901FED420AB0EE4D
:1020A000408A00BF09E0BC48005D2C2803D104A889
:1020B000C455781CC7B2601CC4B2B8480078401C34
:1020C0008442F0DB002599E004A8405D401CC4B2C6
:1020D00007E0B148005D01A98855701CC6B2601CBC
:1020E000C4B204A9681C085CA042F2DC092D7AD2B3
:1020F000DFE805F0054C52575D62676D730001A87B
:10210000FEF7F4FEB0EE409AF0EE609A51EC190B37
:102110000FF0E4FE08EE100ABCEEC80A10EE100A3A
:1021200042F21071B0FBF1F09D4908700846017849
:10213000BCEEC80A10EE100A42F2107202FB110047
:102140006421B0FBF1F096494870084600781146CA
:1021500010FB01F000EE100AB8EEC00A78EE400A5B
:102160008F484078642110FB01F000EE100AB8EEB1
:10217000C00A30EEC00ABCEEC00A10EE100A884950
:10218000887008460078083008702CE001A984485F
:10219000C01C0EF0B2F926E09DF804008049C87317
:1021A00021E001A97E4810300EF0A7F91BE09DF850
:1021B00004007B49087716E09DF8040078494877C9
:1021C00011E001A80EF08CF9754988770BE001A9A0
:1021D00073481F300EF091F905E001A970482430D2
:1021E0000EF08BF900BF00BF04E0002001A9885564
:1021F000701EC6B2002EF8DC681CC5B2781EA8425C
:102200003FF762AF09B0BDEC048BF0BD38B50020DC
:102210000090032406E06048015DE01E0DF8001008
:10222000601CC4B2072CF6DB5EA16846FEF70BFE0D
:1022300008B9FFF722FF5CA16846FEF704FE08B963
:10224000FFF726FE59A16846FEF7FDFD08B9FFF726
:10225000F9FC38BD10B506F08DFB40F2255154480D
:1022600003F094F918B35248001D00884A494B4ABC
:102270001278885449480078401C484908704648FC
:102280000078242802D0FFF7CEFC10E04348007805
:10229000401E4149085C0A2809D140480078801E48
:1022A000085C0D2803D1FFF7B1FFFFF7BCFC06F077
:1022B00072FB10BDF0B52DED028B8BB0142106A87A
:1022C0000EF03FF90025002400260027142101A864
:1022D0000EF037F900BF09E02F48405D2C2803D1EC
:1022E00006A8C555781CC7B2681CC5B22B48007833
:1022F000401C8542F0DB00249CE0781EA04212DDE9
:1023000006A8005D401CC5B207E02348405D01A956
:102310008855701CC6B2681CC5B206A9601C085C52
:10232000A842F2DC0CE0781EA04209D106A8005DAC
:10233000401CC5B21848405D01A98855701CC6B242
:10234000092C69D2DFE804F0051318383D4B505EC4
:10235000630001A80FF03CFCB0EE408AF0EE608A0A
:1023600051EC180B0FF0BAFD1249086054E09DF8CB
:102370000400104908714FE001A80FF029FCB0EEED
:10238000408AF0EE608A51EC180B0FF0A7FD094966
:10239000886041E016160020941600204C000020B2
:1023A000E81500204747410047534100524D430084
:1023B00000480040741600209DF804002649087368
:1023C0002AE001A80FF004FCB0EE408AF0EE608A2B
:1023D00051EC180B0FF082FD1F4908611CE09DF8BD
:1023E00004001D49087517E001A80FF0F1FBB0EEDD
:1023F000408AF0EE608A51EC180B0FF06FFD164921
:10240000886109E09DF804001349087704E09DF80D
:1024100004001149487700BF00BF04E0002001A973
:102420008855701EC6B2002EF8DC00208DF804001E
:10243000601CC4B2BC42FFF660AF0BB0BDEC028BB7
:10244000F0BD00BF0549098801F040010029F9D01D
:102450000249091D0880704774160020004800409A
:1024600070B506460C46154600F09AFA304600F064
:1024700043FB00F0D6FA18B100F0B4FA012070BDA9
:10248000204600F039FB00F0CCFA284600F034FB7F
:1024900000F0C7FA00F0A6FA0020F0E770B5044695
:1024A0000025B82C01DB012510E05C2C01DB0225A6
:1024B0000CE0292C01DB032508E0142C01DB0425AA
:1024C00004E00A2C01DB052500E006252A461A2136
:1024D000D020FFF7C5FF70BD70B50446B4F57A7F14
:1024E00001DD4FF47A74042C00DA04244FF47A707E
:1024F00090FBF4F0401EC5B22A461921D020FFF708
:10250000AFFF0546264604EBD671C1F34F00FFF737
:10251000C5FF70BD70B504460D4600F041FA204677
:1025200000F0EAFA00F07DFA284600F0E5FA00F043
:1025300078FA00F035FA611CC8B200F0DDFA00F05C
:1025400070FA002000F005FB064600F04BFA30461A
:1025500070BD2DE9F04106460F4614461D4600F0B9
:102560001FFA304600F0C8FA00F05BFA20B100F024
:1025700039FA0120BDE8F081384600F0BDFA00F0DC
:1025800050FA00F00DFA711CC8B200F0B5FA00F074
:1025900048FA0DE0012C04D1002000F0DAFA28708E
:1025A00003E0012000F0D5FA2870601EC4B26D1C53
:1025B000002CEFD100F016FA0020DBE77CB50446D2
:1025C0000D46164602223721D020FFF749FF06228A
:1025D0000A211820FFF744FF072004F0A4F96B46F6
:1025E000062203211820FFF7B4FF08B101207CBDAB
:1025F0009DF800009DF8011040EA012000B2208003
:102600009DF802009DF8031040EA012000B22880E6
:102610009DF804009DF8051040EA012000B23080CA
:102620000020E4E710B502223721D020FFF718FF81
:102630000A2004F078F901220B211820FFF710FF7F
:1026400000211820FFF766FF0446482C1BD1072203
:102650000A211820FFF704FF0A2004F064F9B64AA3
:10266000911E881EFFF7AAFF00220A211820FFF7FB
:10267000F7FE0A2004F057F906220A211820FFF776
:10268000EFFE002010BD0120FCE710B50446E00677
:10269000020E1C21D020FFF7E3FE10BD10B504464A
:1026A000E006020E1B21D020FFF7DAFE10BD10B5A8
:1026B000002400F057F980226B21D020FFF7D0FED4
:1026C000642004F030F900226B21D020FFF7C8FE0F
:1026D0000320FFF7E3FF0020FFF7D7FF3220FFF7CB
:1026E000FBFE00223821D020FFF7BAFE00226A212B
:1026F000D020FFF7B5FE00222321D020FFF7B0FE47
:1027000080223721D020FFF7ABFEFFF78BFF75212A
:10271000D020FFF7FFFE0446712C11D101226B215E
:10272000D020FFF79DFE00226C21D020FFF798FEFD
:102730003220FFF7D1FEC820FFF7B0FE002010BD09
:102740007EA00DF03DFE0120F9E710B504460222FF
:102750003721D020FFF784FE0A2004F0E4F801229C
:102760000A211820FFF77CFE0A2004F0DCF8002183
:102770001820FFF7CFFE20802088482801D10020B4
:1027800010BD0120FCE738B504466B460222472104
:10279000D020FFF7DEFE9DF801009DF8001040EA12
:1027A000012000B2208038BD2DE9F04180460D4661
:1027B00016461F4600F0F4F8404600F09DF900F080
:1027C00030F920B100F00EF90120BDE8F081284673
:1027D00000F092F900F025F900240BE0385D00F0DC
:1027E0008BF900F01EF918B100F0FCF80120ECE7BD
:1027F000601CC4B2B442F1DB00F0F4F80020E4E75E
:1028000030B52DED068B81B004466B460222412186
:10281000D020FFF79EFE9DF801009DF8001040EAD1
:10282000012005B228460FF0DBFD41EC1A0B9FEDAD
:10283000490B53EC102B0FF03FFC41EC190B9FEDB3
:10284000470B53EC102B0FF07BFB41EC180B0FF0F8
:1028500045FB2060002001B0BDEC068B30BD7CB58F
:1028600004460D4616466B4606224321D020FFF74C
:1028700070FE08B101207CBD9DF801009DF800109C
:1028800040EA012000B220809DF803009DF802106C
:1028900040EA012000B228809DF805009DF8041050
:1028A00040EA012000B230800020E4E77CB5044615
:1028B0000D4616466B4606223B21D020FFF749FE07
:1028C00008B101207CBD9DF801009DF8001040EA90
:1028D000012000B220809DF803009DF8021040EA1C
:1028E000012000B228809DF805009DF8041040EA00
:1028F000012000B230800020E4E738B504460D46E0
:102900006B4604223B21D020FFF723FE08B10120B3
:1029100038BD9DF801009DF8001040EA012000B28A
:1029200020809DF803009DF8021040EA012000B2CB
:1029300028800020ECE70000640000204D5055394D
:1029400032353020496E6974204661696C2E2E2E16
:102950000D0A000052B81E85EBDD74400000000037
:10296000000035401CB50121022002F091FAC02080
:10297000009001208DF8040000208DF8060003204F
:102980008DF8050001208DF807006946CF4801F059
:10299000E1FF0120CE490860CE49C1F89C021CBD70
:1029A00010B5CA48006820F44040C849086008468D
:1029B000006840F4804008600120C549091D086096
:1029C000C449C1F89802042003F083FF0020C049E5
:1029D000091D0860042003F07CFF0020BD49C1F8F8
:1029E000980210BD10B5B948006820F44040B749BE
:1029F00008600846006840F4804008600020B44940
:102A00000860B449C1F89C02042003F062FF012071
:102A1000AF490860AF49C1F89C02042003F059FF98
:102A200010BD10B50024A948006820F44040A74913
:102A300008600846006808600120A549091D086073
:102A400003F047FF0120A349C1F8980203F041FFBA
:102A500007E0601CC4B2FA2C03DDFFF7C3FF0120BE
:102A600010BD9B487C3800680028F2D19849086066
:102A700000BFF5E710B5002095490860934800684D
:102A800020F44040914908600846006840F48040C6
:102A9000086000208F49C1F89C02022003F019FF52
:102AA00001208B490860022003F013FF00208949B0
:102AB000C1F8980210BD10B5002085490860834810
:102AC000006820F44040814908600846006840F4EE
:102AD0008040086001207F49C1F89C02022003F079
:102AE000F8FE01207A490860022003F0F2FE00207F
:102AF0007849C1F8980210BD70B504467348006863
:102B000020F44040714908600846006840F4804065
:102B1000086000206E490860002517E0E0096C4954
:102B2000091D08606006040E022003F0D2FE012099
:102B30006849C1F89802022003F0CBFE00206449E6
:102B40000860022003F0C5FE681CC5B2082DE5DB55
:102B500070BD70B5054600245C48006820F4404014
:102B60005A490860084600680860002616E0002000
:102B700057490860022003F0ACFE01205549C1F816
:102B800098026006040E52487C38006808B1601C48
:102B9000C4B2012003F09DFE701CC6B2082EE6DB15
:102BA00015B9FFF788FF01E0FFF764FF204670BD0D
:102BB0002DE9F04105460F4614461E46FFF7F0FE8C
:102BC000002141EA4501C8B2FFF796FFFFF729FF50
:102BD00020B1FFF707FF0020BDE8F0813846FFF77E
:102BE0008BFFFFF71EFFFFF7DBFE012101EB450125
:102BF000C8B2FFF781FFFFF714FF0DE00120FFF7D8
:102C0000A8FF3070012C02D1FFF755FF01E0FFF75C
:102C100031FF761C601EC4B2002CEFD1FFF7E2FE3C
:102C20000120D9E72DE9F04105460E4617469846A2
:102C3000FFF7B6FE002141EA4501C8B2FFF75CFF8D
:102C4000FFF7EFFE20B1FFF7CDFE0020BDE8F081D9
:102C50003046FFF751FFFFF7E4FE00240BE018F8C1
:102C60000400FFF749FFFFF7DCFE18B1FFF7BAFEDB
:102C70000020EBE7641CBC42F1DBFFF7B3FE012050
:102C8000E4E72DE9F04104460D4616461F463B4653
:102C9000324629462046FFF7C5FF10B10020BDE8A7
:102CA000F081FF20FBE72DE9F04104460D46164672
:102CB0001F463B46324629462046FFF779FF10B1B2
:102CC0000020BDE8F081FF20FBE700000004024087
:102CD000988240420080404200B58DB001210846F4
:102CE00002F0D6F80121080202F02CF9A0200B9086
:102CF00003208DF8300000208DF833000BA93848F0
:102D000001F028FE0121080202F071F900214FF4C0
:102D1000807002F06CF9002007900A9009904FF43F
:102D20008030089007A803F007FB002001908DF881
:102D300008008DF809000390059001208DF8180017
:102D400001A9284803F0C9FA0121264803F00BFB2A
:102D50000DB000BD10B504460723012221462148CD
:102D600003F041FB1F4803F09AFB00BF02211D48FE
:102D700003F0B6FC0028F9D01A4803F0CCFB10BDD4
:102D80002DE9F04107460C460025002608E03846AC
:102D9000FFF7E0FF0544052003F0C5FD701CC6B237
:102DA000A642F4DBB5FBF4F080B2BDE8F081F8B5E3
:102DB0000024002505210846FFF7E2FF044605210F
:102DC0000720FFF7DDFF054668460CF025FC00EB09
:102DD000800633462A46214603A00DF0F1FAF8BDDD
:102DE0000000024000200140256409256409256493
:102DF0000D0A00001CB50121042002F049F84FF42F
:102E0000C050009001208DF8040000208DF80600CD
:102E100003208DF8050001208DF8070069461A4847
:102E200001F098FD4FF40061174801F00FFE4FF4D8
:102E30008051154801F00AFE1CBD1448006808B90D
:102E4000012000E0002011490860704700200F4970
:102E50000860704701200D49086070470B48001D4D
:102E6000006808B9012000E000200849091D086039
:102E7000704700200549091D08607047012003497B
:102E8000091D08607047000000080240AC02414282
:102E900030B587B005460C460121082002F041F804
:102EA0000595ADF810400020ADF81200ADF81800FF
:102EB00004A9604802F061FC012211465D4803F05C
:102EC000FDF801215B4802F0E1FC32208DF80C0096
:102ED00001208DF80D0000208DF80E0001208DF8E6
:102EE0000F0003A801F045FC1F20019001208DF880
:102EF000080003208DF8090000208DF80A00012049
:102F00008DF80B0001A94C4801F024FD042001902C
:102F100001208DF8080001A9484801F01BFD07B009
:102F200030BD10B505F026FD0121424803F0DDF863
:102F300001284FD19FED420B53EC102B424890EDEE
:102F4000000B51EC100B0EF0FBFF3F4A03C29FED4C
:102F50003C0B53EC102B3D4890ED000B51EC100B4B
:102F60000EF0EEFF394A03C2394890ED000B53ECE6
:102F7000102B354890ED000B51EC100B0FF094FB2B
:102F80000CD89FED340B304880ED000B33480068BF
:102F900008B9012000E0002030490860304890ED79
:102FA000000B53EC102B294890ED000B51EC100B4B
:102FB0000FF07AFB0ED89FED270B244880ED000B15
:102FC0002648001F006808B9012000E000202349BE
:102FD000091F08600121174803F098F805F0DBFC91
:102FE00010BD10B52DED088B044620460FF00FFAEA
:102FF00041EC1B0B53EC1B2B9FED1A0B51EC100BF0
:103000000FF05AF841EC1A0B9FED180B53EC102BF4
:103010000FF052F841EC190B0EF060FF08EE100AA9
:103020001CB9B7EE000AB0EE408AB0EE480ABDEC1B
:10303000088B10BD000C0040000002400008024058
:1030400000000080B5F8D43E8000002088000020F9
:1030500090000020000000000000000084024042B8
:1030600098000020000000000000F03F0000000079
:103070000000004030B589B004460D46012104200F
:1030800001F04FFF0121082001F002FF4FF47040D2
:10309000079002208DF8200003208DF821000020E9
:1030A0008DF8220002208DF8230007A9FE4801F0C8
:1030B00051FC02220C21FC4801F0D7FC02220D2118
:1030C000F94801F0D2FC02220E21F74801F0CDFCB4
:1030D00002220F21F44801F0C8FCADF81050002086
:1030E000ADF812000594ADF8180004A9EF4802F0FD
:1030F00044FB0020ADF80000ADF802000120ADF85F
:1031000004000020ADF80600ADF808006946E74865
:1031100002F00AFF0420ADF800006946E34802F01F
:1031200003FF0820ADF800006946E04802F0FCFE0D
:103130000C20ADF800006946DC4802F0F5FE1E20C8
:103140008DF80C0002208DF80D0000208DF80E0087
:1031500001208DF80F0003A801F00BFB01221F21B5
:10316000D24802F0ABFF0121D04802F08FFB09B03A
:1031700030BD10B505F0FEFBCD48007800F08000B2
:1031800000284CD10121C94802F0AFFFD0B1C84896
:10319000007800F04000A8B1C548007800F03F007A
:1031A0003F280AD1C248007840F08000C04908702A
:1031B0004FF6FF70BF49086004E0BD480078401C2E
:1031C000BB4908700221B94802F08FFF38B3B848F4
:1031D000007800F0400078B1B548007840F08000F9
:1031E000B3490870B14802F01DFFB24908600021E0
:1031F000AE4802F066FD12E00020AD490870AD490E
:1032000008600021A94802F001FBA948007840F0BD
:103210004000A74908700221A44802F052FDA648C8
:10322000007800F0800000284CD101219F4802F076
:103230005CFFD0B1A048007800F04000A8B19E48E3
:10324000007800F03F003F280AD19B48007840F00A
:103250008000994908704FF6FF709849086004E0B3
:1032600095480078401C9449087004218F4802F06A
:103270003CFF38B39048007800F0400078B18E48A9
:10328000007840F080008C490870884802F0CDFE3C
:103290008A4908600021854802F025FD12E00020DF
:1032A00085490870854908600021804802F0AEFA1F
:1032B0008148007840F040007F49087002217B4837
:1032C00002F011FD7E48007800F0800000284CD10B
:1032D0000121764802F009FFD0B17948007800F06A
:1032E0004000A8B17648007800F03F003F280AD19E
:1032F0007348007840F08000714908704FF6FF7005
:103300007049086004E06E480078401C6C49087001
:103310000821664802F0E9FE38B36948007800F0F9
:10332000400078B16648007840F080006449087039
:103330005E4802F07DFE6349086000215B4802F0B0
:10334000ECFC12E000205E4908705E490860002134
:10335000564802F05BFA5A48007840F0400058495D
:1033600008700221514802F0D8FC5748007800F05C
:103370008000C0BB01214D4802F0B7FED0B15248D9
:10338000007800F04000A8B14F48007800F03F00FE
:103390003F280AD14C48007840F080004A49087024
:1033A0004FF6FF704949086004E047480078401C28
:1033B0004549087010213D4802F097FE98B14248F7
:1033C000007800F0400078B13F48007840F080007D
:1033D0003D490870354802F02EFE3C490860002146
:1033E000324802F0B4FC12E0002037490870374937
:1033F000086000212D4802F009FA3348007840F0B7
:103400004000314908700221284802F0A0FC1F2129
:10341000264802F07BFE05F0BEFA10BD00210180B7
:1034200041808180C1802249097801F0800179B111
:103430001F49097801F03F018180818849428180DC
:1034400081881C4A1288114481800021184A117019
:103450001949097801F0800179B11749097801F01B
:103460003F01C180C1884942C180C188134A128886
:103470001144C1800021104A11701149097801F0EE
:10348000800179B10E49097801F03F01018001887E
:103490004942018001880B4A1288114401800021B1
:1034A000074A1170084913E0000C02400008004070
:1034B000A0000020A4000020A1000020A8000020FF
:1034C000A2000020AC000020A3000020B0000020DB
:1034D000097801F0800179B12449097801F03F01B0
:1034E00041804188494241804188214A12881144E3
:1034F000418000211D4A1170018840F6020291426C
:1035000003DC0188B1F57A7F02DA1A490988018063
:10351000418840F60202914203DC4188B1F57A7F8E
:1035200002DA144949884180818840F602029142BA
:1035300003DC8188B1F57A7F02DA0E4989888180BF
:10354000C18840F60202914203DCC188B1F57A7F5E
:1035500002DA0849C988C1800188064A1180418879
:10356000518081889180C188D1807047A30000205C
:10357000B0000020B400002010B52DED028B86B005
:1035800041F2883008EE100A002003900490059064
:1035900000900190029018EE104A88E0FE4A911EB9
:1035A000881EFFF783F9FD4A911E881EFFF757F921
:1035B000FA48001FB0F9000000EE100AB8EEC00A89
:1035C000DFEDF70A20EE200ADFEDF60A80EE201A82
:1035D0009DED030A31EE000A8DED030AEF48001F4E
:1035E000B0F9020000EE100AB8EEC00ADFEDEC0AF6
:1035F00060EE200A9FEDEB1A80EE810ADDED040AF1
:1036000030EE200A8DED040AE448001FB0F90400F2
:1036100000EE100AB8EEC00ADFEDE10A20EE200A43
:10362000DFEDE00A80EE201A9DED050A31EE000A7A
:103630008DED050AD848001FB0F9000000EE100A11
:10364000B8EEC00A9FEDD71AC0EE010A9DED000A40
:103650009FEDD51A00EE810A8DED000ACE48001FBD
:10366000B0F9020000EE100AB8EEC00A9FEDCD1AC4
:10367000C0EE010A9DED010A9FEDCB1A00EE810A12
:103680008DED010AC448001FB0F9040000EE100AD5
:10369000B8EEC00A9FEDC31AC0EE010A9DED020A02
:1036A0009FEDC11A00EE810A8DED020A641E002C06
:1036B0007FF474AF9DED030AF8EE480A80EE201AFD
:1036C000BA4880ED001A9DED040AF8EE480A80EE33
:1036D000201A80ED011A9DED050AF8EE480A80EEE9
:1036E000201A80ED021A9DED000AF8EE480A80EEDD
:1036F000201AAF4880ED001A9DED010AF8EE480A45
:1037000080EE201A80ED011A9DED020AF8EE480ABB
:1037100080EE201A80ED021A06B0BDEC028B10BDBF
:1037200000B52DED028B81B09FEDA20AB0EE408A6C
:10373000994A911E881EFFF7B9F8984A911E881E73
:10374000FFF78DF89448001FB0F9000000EE100A52
:10375000B8EEC00A9FED931AC0EE010A944890EDAE
:10376000000A9FED911A10EE810A934880ED050A38
:10377000924880ED000A8848001FB0F9020000EE70
:10378000100AB8EEC00A9FED871AC0EE010A8848F9
:1037900090ED010A9FED841A10EE810A864880EDB3
:1037A000060A864880ED010A7B48001FB0F9040034
:1037B00000EE100AB8EEC00A9FED7A1AC0EE010AB8
:1037C0009FED790A20EE800A7C4880ED020A73485A
:1037D000001FB0F9000000EE100AB8EEC00A9FED1D
:1037E000711AC0EE010A714890ED000A9FED6C1A43
:1037F00010EE810A714880ED030A6848001FB0F995
:10380000020000EE100AB8EEC00A9FED661AC0EE84
:10381000010A664890ED010A9FED611A10EE810AD7
:10382000664880ED040A5D48001FB0F9040000EE10
:10383000100AB8EEC00A9FED5B1AC0EE010A5B48A1
:1038400090ED020A9FED561A10EE810A5C4880ED59
:10385000000A5A4880ED050A68460BF0DDFE00EECE
:10386000100AB8EE400AF1EE040A20EE200ADFED5D
:10387000550A80EE201AB0EE418A534890ED000AB6
:1038800078EE400A514890ED000A4D4890ED001A3C
:1038900001EE200A4D4880ED000A4B4880ED008A79
:1038A0004A4890ED000A444880ED040A444890EDEF
:1038B000000A414880ED030A444890ED000A3E4862
:1038C00080ED040A01B0BDEC028B00BD70B52DED9A
:1038D000088B04460D469FED3E0AB0EE408A9FEDF0
:1038E0003D0AF0EE408A9FED3C0AB0EE409A9FED13
:1038F0003B0AF0EE409A9FED2F0AB0EE40AA9FEDF2
:103900002D0AF0EE40AA9FED360AB0EE40BA9FEDC8
:10391000290AF0EE40BA2088B0F5BE6F04DDB0EEA3
:1039200048AAF0EE49AA08E0208840F2DC5188421B
:1039300003DAB0EE68AAF0EE69AA6088B0F57A7F83
:1039400053DD608840F6020188424EDA608840F21A
:10395000FA51884204DC608840F2DC51884244DA43
:103960006088A0F2ED5000EE900AF8EEE00AB0EEAA
:10397000600AFDF753FAF0EE40BA2BEE2B0A85ED04
:10398000000A608840F2FA51884232DD95ED000A63
:10399000B1EE400A26E0000052000020580000204E
:1039A0000000FA4400FEFF46CDCC9C41B017002039
:1039B000BC17002000000000841500208C17002098
:1039C000CC00002000007A44DC000020D000002061
:1039D000B3EAC340D7FAFA3F987310C600007AC51D
:1039E0000000C03D85ED000A03E01FED0E0A85EDE5
:1039F000000A208800EE100AF8EE400AB0EE6A0ACB
:103A000010EECA0A85ED010ABDEC088B70BD90ED81
:103A1000000AD0ED010A30EE200A81ED010A90ED96
:103A2000010AD0ED000A30EE600A81ED000A70470D
:103A30002DE9F0412DED028B04461FED220A10EE18
:103A4000105A1FED240A10EE106A1FED260AB0EE80
:103A5000408A1FED280AF0EE408A94ED000ADFED5F
:103A6000B50A80EE201A9FEDB40A21EE000AB0EEEE
:103A7000408A94ED010ADFEDAF0A80EE201A9FED37
:103A8000AE0A21EE000AF0EE408AB0EE480AFDF7D9
:103A9000C5F9BCEEC00A10EE107A3846FFF7A1FA5D
:103AA00010EE105AB0EE680AFDF7B8F9BCEEC00A85
:103AB00010EE107A3846FFF794FA10EE106AB5EE61
:103AC000C08AF1EE10FA03DD01209C49086007E08E
:103AD000B5EEC08AF1EE10FA02D2002097490860D4
:103AE00028460EF001FF964A03C2F5EEC08AF1EEB9
:103AF00010FA03D200209349086007E0F5EEC08A6F
:103B0000F1EE10FA02DD01208E49086030460EF019
:103B1000EBFE8D4A03C2BDEC028BBDE8F08100B51F
:103B20002DED0A8B81B0B0EE409AF0EE609A1FED59
:103B30005F0AB0EE40AA9FED850AB0EE40BA9FED55
:103B4000840AB0EE40CAB3EE040AF0EE40CA1FED9C
:103B5000670AF0EE40AA1FED690AF0EE40BAB3EE34
:103B60000B0A69EE800AB3EE0E1A80EE810A39EE76
:103B7000400AB0EE408A3AEE880AF0EE40AA684663
:103B80000BF04AFD00EE100AB8EE400AF1EE040A0E
:103B900020EE200A5FED750A80EE201AB0EE41AAF1
:103BA0006C4890ED000A38EE400A6B48D0ED000AF0
:103BB0007AEE600A80EE201AF0EE41BA80ED00AA9B
:103BC0002BEE080A0CEE2A0A0CEEAB0AF0EE408A45
:103BD0001FED8D0AF4EEC08AF1EE10FA04DB1FED42
:103BE000900AF0EE408A0AE09FED5C0AF4EEC08A8B
:103BF000F1EE10FA03D29FED590AF0EE408A5548D3
:103C000080ED008AB1EE680A01B0BDEC0A8B00BD00
:103C100030B587B00446002500200590069003903B
:103C2000049001900290FFF77BFD00BF00BF00BF32
:103C300003F070F9054600BF00BF49480078401CFA
:103C40004749087000BF00BF284603F067F900BF6E
:103C500000BF00BF05A92046FFF738FE00BF00BF28
:103C600000BF03F057F9054600BF00BF3C4800788D
:103C7000401E3B49087008460078A0B939480088C2
:103C8000002809DD00BF00BF284603F047F900BF48
:103C900000BF05F0EBFB0DE000BF00BF284603F0BE
:103CA0003DF900BF06E000BF00BF284603F036F92B
:103CB00000BF00BF00BF9DED060A8DED020A9DED1D
:103CC000050A294880ED030AD0ED030AB0EE600A28
:103CD0002648D0ED000AFFF722FF8DED010A2448A7
:103CE00090ED040A204880ED040A9DED010A5FED85
:103CF000D40AB4EEE00AF1EE10FA04DD1FEDD80AA2
:103D00008DED010A0CE09DED010ADFED140AB4EE21
:103D1000E00AF1EE10FA03D29FED100A8DED010AD0
:103D200003A901A8FFF773FE03A8FFF781FE07B000
:103D300030BD00000000C8430000804490024042B3
:103D4000900000208802414298000020000020429C
:103D50000000C842E4000020E00000200000FAC497
:103D60008401002048010020B0150020CC00002074
:103D7000841500201CB50121072001F0E3F8C020C4
:103D8000009001208DF8040000208DF8060003202B
:103D90008DF8050001208DF807006946FE4800F007
:103DA000D9FD032000906946FC4800F0D3FD302087
:103DB00000906946FA4800F0CDFD0120F9490860FD
:103DC000F949C1F89C02F9490860091D0860F849E1
:103DD0000860F849C1F894021CBDF2480068C0436D
:103DE000F149C1F898027047F0480068C043F249B1
:103DF000C1F880027047EE480068C043ED49C1F841
:103E00009002704710B50446F4B1012C38D1EB484C
:103E10004088EB49498A401A00EE900AF8EEE00A21
:103E2000B0EE600AFCF7FAFFF0EE000A80EE201A0E
:103E30009FEDE40A21EE000ABCEEC00A10EE100A63
:103E400081B2DF48C1821BE0DC480088DC49098878
:103E5000401A00EE900AF8EEE00AB0EE600AFCF7B5
:103E6000DDFFF0EE000A80EE201A9FEDD70A21EE6A
:103E7000000ABCEEC00A10EE100AD149888000BFCB
:103E800000BF10BD0146002059B1012902D002290E
:103E900015D10DE0C94A5288C94B5B8AD21A10B2BB
:103EA0000DE0C64A1288C64B1B88D21A10B206E033
:103EB000C24A9288C24B9B8CD21A10B200BF00BF7C
:103EC000704770B52DED028B06469FEDC00AB0EE2F
:103ED000408A3046FFF7D6FF044645F20235002EF1
:103EE0007ED0012E02D0022E7BD118E1B34840884B
:103EF000B349498A401A00EE900AF8EEE00AB0EEA3
:103F0000600AFCF78BFF9FEDAF1AF6EE000A40EE59
:103F1000010ABCEEE00A10EE100A81B2A8488183C3
:103F2000A6484088A649498A401A07D5A448818AEC
:103F3000808B081A81B2A248418306E0A048818A9A
:103F4000808B084481B29E4841839D48808BA0F5B8
:103F5000966000EE100AB8EEC00AB0EE408A002C5F
:103F600027DD9748408A00EE100AF8EE400A9FEDE0
:103F7000951A9FED970A00EE810ABCEEC00A10EE7A
:103F8000100A81B28E48C182408A00EE100AF8EE13
:103F9000400A9FED8C1A9FED8E0A00EE810A30EEEA
:103FA000080ABCEEC00A10EE100A81B284480183F0
:103FB00029E08348408A00EE100AF8EE400A9FED9F
:103FC000811A9FED830A10EE810ABCEEC00A10EE42
:103FD000100A81B27A48C182408A00EE100A01E0DC
:103FE00012E0D7E0F8EE400A9FED761A9FED780ACE
:103FF00010EE810A30EE480ABCEEC00A10EE100A3C
:1040000081B26F480183C5E06C4800886C4909881B
:10401000401A00EE900AF8EEE00AB0EE600AFCF7F3
:10402000FDFE9FED691AF6EE000A40EE010ABCEEB5
:10403000E00A10EE100A81B2614841815F480088B1
:104040005F490988401A07D55D4841884089081AA8
:1040500081B25B48018106E05948418840890844A3
:1040600081B25748018156484089A0F5966000EE1C
:10407000100AB8EEC00AB0EE408A002C27DD504886
:10408000008800EE100AF8EE400A9FED4F1A9FEDEF
:10409000500A00EE810ABCEEC00A10EE100A484930
:1040A00088800846008800EE100AF8EE400A9FED6E
:1040B000461A9FED470A00EE810A30EE080ABCEE70
:1040C000C00A10EE100A81B23D48C18026E03C488B
:1040D000008800EE100AF8EE400A9FED3B1A9FEDB3
:1040E0003C0A10EE810ABCEEC00A10EE100A3449F8
:1040F00088800846008800EE100AF8EE400A9FED1E
:10410000321A9FED330A10EE810A30EE480ABCEEF7
:10411000C00A10EE100A81B22948C1803AE0002C92
:104120001BDD2748C5858585808C00EE100AF8EEDA
:10413000400A9FED281A9FED260A00EE810ABCEE88
:10414000C00A10EE100A81B21D480185808DA0F5CD
:10415000167081B21A4841851BE01948C5850021B7
:104160008185808C00EE100AF8EE400A9FED191A46
:104170009FED170A10EE810ABCEEC00A10EE100A7D
:1041800081B20F480185808D00F5167081B20C4810
:10419000418500BF00BF1FE0000002400004024054
:1041A00000080240980240420000404280824042A3
:1041B0009002414200004142008040420000002045
:1041C00044150020677B65408FF80841000000001F
:1041D000000016448EE3D542BDEC028B70BD10B5D5
:1041E0002DED028B04462046FFF74CFE08EE100A28
:1041F00094B1012C1FD1B8EEC80AFCF70FFEDFED19
:10420000990AB4EEE00AF1EE10FA03DD0120BDECEC
:10421000028B10BD0020FAE7B8EEC80AFCF7FEFDDD
:10422000DFED910AB4EEE00AF1EE10FA01DD0120B3
:10423000EDE70020EBE70120E9E7B0B1012802D06B
:10424000022834D123E08949498841F29C329142C5
:1042500003DB1146854A518006E0844949880029DC
:1042600002DC0021814A518021E08049098841F225
:10427000DA62914203DB11467C4A118006E07B49F9
:104280000988002902DC0021784A11800FE0774973
:104290008988B42903DBB421744A918006E073490C
:1042A0008988002902DC0021704A918000BF00BF8C
:1042B000704738B504462046FFF7E4FD054600EE9A
:1042C000105AB8EEC00AFCF7A9FDB5EEC00AF1EE2F
:1042D00010FA75D02046FFF7B0FF2046FFF77FFFAA
:1042E000B8B12046FFF7EDFD4CB1012C02D0022CF5
:1042F0000ED108E001215E4880F8201008E001207E
:104300005B49887304E00121594880F8321000BFEE
:1043100017E02046FFF776FD4CB1012C02D0022CAD
:104320000ED108E00221524880F8201008E0022057
:104330004F49887304E002214D4880F8321000BFD5
:1043400000BF4CB3012C02D0022C4FD139E0032125
:104350004748C177002D03DD00204649086002E090
:10436000012044490860012141488177424801F019
:104370008DFA68460BF050F900EE100AB8EE400ACC
:10438000F1EE040A20EE200ADFED3C0A80EE201A4E
:104390003B4880ED001A29E0032035494873002D81
:1043A00003DD00203749086002E00120354908603C
:1043B00001202F4908730121334801F067FA15E005
:1043C00015E003212A4880F83110002D03DD01207B
:1043D0002E49086002E000202C4908600121244891
:1043E00080F830102A4801F051FA00BF13E044B1C0
:1043F000012C02D0022C0DD107E000211C4881774E
:1044000008E000201A49087304E00021184880F8E9
:10441000301000BF00BF38BD70B1012802D00228A3
:104420001ED113E0002903DA0122124B1A6002E0C8
:104430000022104B1A6013E0002903DA0122114B0D
:104440001A6002E000220F4B1A6009E0002903DA2B
:1044500001220E4B1A6002E000220C4B1A6000BFD2
:1044600000BF70470000A74300000C43000000207D
:10447000441500209C0240420004004000007A44A1
:10448000E800002084824042000001409402414242
:104490000044014000B585B00121082000F0F8FC7F
:1044A0003F20009000208DF8040003208DF80500C7
:1044B00001208DF807006946964800F04BFA01216B
:1044C000880300F03FFD0021032000F046FE01219B
:1044D000032000F042FE0221032000F03EFE0321F3
:1044E000084600F03AFE0421032000F036FE0521C4
:1044F000032000F032FE0621032000F02EFE3F20B4
:10450000029000208DF80C000C208DF80D00012089
:104510008DF80E0002A802F015F906208DF81000A3
:1045200000208DF8110002208DF8120001208DF876
:10453000130004A800F01DF907208DF8100004A84E
:1045400000F017F908208DF8100004A800F011F908
:1045500009208DF8100004A800F00BF90A208DF84E
:10456000100004A800F005F905B000BD01216A485B
:1045700080F83B1080F83A106848006818B1664827
:1045800080F8391003E00021634880F8391063484F
:10459000001F006820B101215F4880F8381003E057
:1045A00000215D4880F8381001215B4880F83D10FB
:1045B00080F83C1059480838006818B1564880F80F
:1045C000371003E00021544880F837100120524989
:1045D00081F83600704710B504F0CCF9012002F0E4
:1045E00017F978B14D480838006820B900214A48C9
:1045F00080F8371003E00121474880F83710012088
:1046000002F011F904F0C7F910BD1CB504F0B2F9BD
:10461000022002F0FDF8C8B141480021CDE90010A8
:10462000404803780A4608460AF01DFE3B48001F32
:10463000006820B90021384880F8381003E00121D3
:10464000354880F83810022002F0EDF804F0A3F9A4
:104650001CBD1CB504F08EF9042002F0D9F8C0B1DD
:104660002F480021CDE900102E4803780A4608465D
:104670000AF0F9FD2948006820B90021264880F891
:10468000391003E00121244880F83910042002F099
:10469000CAF804F080F91CBD1CB504F06BF90820C1
:1046A00002F0B6F8C8B11E480021CDE900101D483F
:1046B00003780A4608460AF0D6FD1848001D00682F
:1046C00020B90021144880F83A1003E00121124873
:1046D00080F83A10082002F0A6F804F05CF91CBD3E
:1046E00010B504F047F9102002F092F878B10B48A9
:1046F0000830006820B90021074880F83B1003E02B
:104700000121054880F83B10102002F08CF804F0DD
:1047100042F910BD000C02404415002008824142BD
:10472000EC000020EE0000200948804709480047BF
:10473000FEE7FEE7FEE7FEE7FEE7FEE7FEE7FEE751
:10474000FEE7FEE704480549054A064B70470000AE
:10475000E90C00088901000810380020103E0020F4
:10476000103A0020103A002032490143324A1160C9
:10477000704770B5002100230F22C4781CB32E4C63
:10478000246804F4E064C4F5E064C4F30721C1F1D3
:104790000404E3B20A4144789C40E1B284781440B6
:1047A00021430C07210E254C05786155047804F04F
:1047B0001F050124AC4005786D11AD0005F1E02521
:1047C000C5F8004109E0047804F01F050124AC405D
:1047D0001B4D0678761145F8264070BD194A0A40EF
:1047E0000243154B1B1F1A60704739B1124A121D44
:1047F00012680243104B1B1D1A6006E00E4A121D80
:10480000126882430C4B1B1D1A607047042808D1A4
:104810004FF0E021096941F004014FF0E0221161FD
:1048200007E04FF0E021096921F004014FF0E02298
:10483000116170470000FA050CED00E000E400E0B3
:1048400080E100E080FFFF1F10B5044698488442D5
:1048500008D10121084600F086FB0021012000F06C
:1048600082FB76E09348844208D10121022000F0C7
:104870007AFB0021022000F076FB6AE08E48844239
:1048800008D10121042000F06EFB0021042000F07B
:104890006AFB5EE08948844208D10121082000F0CB
:1048A00062FB0021082000F05EFB52E08448844255
:1048B00008D10121102000F056FB0021102000F04B
:1048C00052FB46E07F48844208D10121202000F0BD
:1048D0004AFB0021202000F046FB3AE07A4884425F
:1048E00008D10121402000F03EFB0021402000F0D3
:1048F0003AFB2EE07548844208D10121802000F067
:1049000032FB0021802000F02EFB22E07048844220
:1049100008D10121801500F026FB0021A01500F030
:1049200022FB16E06B48844208D10121401500F0BB
:104930001AFB0021601500F016FB0AE0664884426D
:1049400007D10121001500F00EFB0021201500F019
:104950000AFB10BDF0B50A4600210023002400BF69
:104960003DE0012505FA01F3156805EA03049C42C0
:1049700034D105684F000326BE40B5430560157964
:104980004E00B5400668354305601579012D02D00B
:104990001579022D16D185684F000326BE40B54318
:1049A000856055794E00B540866835438560456819
:1049B00001268E40B5434560456896798E40B6B273
:1049C00035434560C5684F000326BE40B543C5600A
:1049D000D5794E00B540C6683543C560491C1029DD
:1049E000BFD3F0BD4FF6FF7101600021017141712D
:1049F0008171C171704708B54FF480320092009AFE
:104A00000A430092009AC261C161009AC261C26900
:104A10000092C269009208BD0246002013690B4053
:104A20000BB1012000E0002070470146086980B208
:104A300070470246002053690B400BB1012000E093
:104A4000002070470146486980B270470183704773
:104A5000418370470AB1018300E04183704741619F
:104A6000704742694A4042617047F0B50023002414
:104A70004D07ED0E02FA05F3CE1000F1200555F8B2
:104A800026504E07F70E0F26BE40B543CF1000F15B
:104A9000200646F82750CE1000F1200555F8265084
:104AA00045EA0304CE1000F1200545F82640F0BD8C
:104AB000000002400004024000080240000C0240D6
:104AC000001002400014024000180240001C024086
:104AD000002002400024024000280240F9480068FB
:104AE00040F00100F74908600020F64908310860ED
:104AF000F4480068F4490840F2490860F348091D89
:104B00000860F348EF4984310860F0481038091D07
:104B10000860EC48006820F48020EA490860002022
:104B2000E8490C310860E7498C3108607047002182
:104B3000E44A921C117011460870704710B5014686
:104B40000022002300204A11012A02D1DD4C2368F3
:104B500008E0022A03D1DB4C7034236802E0D94C10
:104B60007434236801F01F02012494401C400CB1EE
:104B7000012000E0002010BD38B500200090002486
:104B8000002500BF3120FFF7D9FF05460098401CE3
:104B900000900098B0F5A04F01D0002DF2D0312048
:104BA000FFF7CCFF08B1012400E00024204638BD07
:104BB00001460020C34A106820F0F80040EAC10016
:104BC00010607047C349086070470021BD4A7032C9
:104BD00011701170012802D004280AD104E00121CB
:104BE000B84A7032117005E00521B64A7032117072
:104BF00000E000BF00BF7047B7490860704770B55C
:104C0000049C41EA82150126C6EB530645EA064597
:104C1000054345EA0465AB4E361D356070BDAD49B0
:104C200008667047820142EA0172A64B84331A601B
:104C30007047A8498866704710B5830143EA01634D
:104C400043EA02739F4C8834236010BDA149086772
:104C50007047A049C864704702460020994B08334A
:104C6000186820F0EC6042EA01031843954B0833C2
:104C70001860704702460020924B0833186820F0F5
:104C8000784042EA010318438E4B0833186070479E
:104C9000014600208B4A0832106820F003000843C8
:104CA0001060704787480830006800F00C007047BB
:104CB00001460020834A0832106820F0F0000843C3
:104CC00010607047014600207E4A0832106820F4C8
:104CD000E05008431060704701460020794A0832CE
:104CE000106820F4604040EAC10010607047F0B5E1
:104CF000002100220024022500260223714F0837DC
:104D00003F6807F00C0121B1042905D0082937D1EB
:104D100005E0724F076036E0714F076033E0694F7E
:104D20003F1D3F68C7F38056664F3F1D3F6807F041
:104D30003F036EB16A4FB7FBF3F7DFF888C10CF1A0
:104D4000040CDCF800C0CCF3881C07FB0CF40CE06E
:104D5000624FB7FBF3F7DFF86CC10CF1040CDCF821
:104D600000C0CCF3881C07FB0CF4564F3F1D3F6876
:104D7000C7F301477F1C7D00B4FBF5F7076002E035
:104D8000564F076000BF00BF4E4F08373F6807F01F
:104D9000F0010909534F7A5C0768D7404760494FD3
:104DA00008373F6807F4E051890A4E4F7A5C47683C
:104DB000D7408760434F08373F6807F46041490B8D
:104DC000484F7A5C4768D740C760F0BD002100F4C7
:104DD0004072B2F5407F0AD13A4A0832116821F494
:104DE000F811414A02401143364A08321160354AEF
:104DF00070321268C0F30B031A43324B70331A60DF
:104E00007047354944390860704733494039086074
:104E1000704736490860704701460020294A8C32A5
:104E2000106820F01F004A1E1043264A8C32106082
:104E3000704701460020234A8C32106820F4F85055
:104E40004A1E40EA02201F4A8C3210607047014619
:104E500000201C4A8C32106820F440100843106077
:104E6000704701460020174A8C32106820F4400039
:104E700008431060704701460020124A8C321068C7
:104E800020F44030084310607047194908607047AB
:104E900039B10C4A3032126802430A4B30331A607F
:104EA00006E0084A303212688243064B30331A60FB
:104EB0007047F9B1034A343212680243014B34336C
:104EC0001A601CE000380240FFFFF6EA10300024B0
:104ED0000030002000004742800E47420024F400CA
:104EE00040787D01EF000020FFFCFF0F5C0147428E
:104EF000E01147428F4A126882438E4B1A60704716
:104F000039B18C4A121D126802438A4B1B1D1A606C
:104F100006E0884A121D12688243864B1B1D1A60E8
:104F2000704739B1834A0C3212680243814B0C330B
:104F30001A6006E07F4A0C32126882437D4B0C33C4
:104F40001A60704739B17B4A103212680243794BBC
:104F500010331A6006E0774A103212688243754BAC
:104F600010331A60704739B1724A243A126802430A
:104F7000704B243B1A6006E06E4A243A1268824362
:104F80006C4B243B1A60704739B16A4A203A126868
:104F90000243684B203B1A6006E0664A203A1268DA
:104FA0008243644B203B1A60704739B1614A1C3A16
:104FB000126802435F4B1C3B1A6006E05D4A1C3AD4
:104FC000126882435B4B1C3B1A60704739B1594AE7
:104FD000143A12680243574B143B1A6006E0554AD4
:104FE000143A12688243534B143B1A60704739B12C
:104FF000504A103A126802434E4B103B1A6006E0CA
:105000004C4A103A126882434A4B103B1A60704770
:1050100039B1484A1C3212680243464B1C331A60AD
:1050200006E0444A1C3212688243424B1C331A6029
:10503000704739B13F4A2032126802433D4B20335A
:105040001A6006E03B4A203212688243394B203313
:105050001A60704739B1374A243212680243354B1F
:1050600024331A6006E0334A243212688243314BFB
:1050700024331A60704739B12E4A2C321268024329
:105080002C4B2C331A6006E02A4A2C3212688243D9
:10509000284B2C331A60704739B1264A30321268D7
:1050A0000243244B30331A6006E0224A3032126841
:1050B0008243204B30331A607047012808D11D49C4
:1050C0003C31096841F008011A4A3C32116007E09E
:1050D00018493C31096821F00801164A3C32116038
:1050E000704739B1134A273A12780243114B273BD4
:1050F0001A7006E00F4A273A127882430D4B273B7D
:105100001A7070470B484030006840F080700949C1
:1051100040310860704701460020064A283A12686C
:105120000A400AB1012000E00020704701492639F9
:10513000087070473438024010B501218803FFF72A
:1051400056FF00214FF48040FFF751FF10BD1C496E
:10515000086070471B490862704730B500228B0712
:105160001C0F0F2303FA04F2154B08338C1053F86D
:1051700024309343124C08348D1044F825302346D4
:105180008C1053F824308C07240F00FA04F42343C6
:105190000B4C08348D1044F8253030BD0949DC3102
:1051A00008607047084908607047002004492031B2
:1051B000096801F4807109B1012000E00020704706
:1051C00000380140000027420004274210B5044681
:1051D000FA48844208D101211020FFF708FF00217E
:1051E0001020FFF704FF57E0F548844209D1012160
:1051F0004804FFF7EBFE00214FF40030FFF7E6FE16
:105200004AE0F048844209D101218804FFF7DEFE1C
:1052100000214FF48020FFF7D9FE3DE0EA488442A8
:1052200009D10121C804FFF7D1FE00214FF400206D
:10523000FFF7CCFE30E0E548844209D101210805A2
:10524000FFF7C4FE00214FF48010FFF7BFFE23E0FC
:10525000DF48844208D101212020FFF7C8FE002149
:105260002020FFF7C4FE17E0DA48844209D101216B
:105270008807FFF7ABFE00214FF08040FFF7A6FE46
:105280000AE0D548844207D101214005FFF79EFE80
:1052900000216005FFF79AFE10BD2DE9FF47054686
:1052A0000E460024A14600BFA046B08900B100BF51
:1052B0002C8A24F44054F08804432C82AC8941F2B7
:1052C0000C608443B08831890843718908430443E2
:1052D000AC81AC8A24F44074B0890443AC82684643
:1052E000FFF705FDB548854202D0B948854202D195
:1052F000DDF80C9001E0DDF80890A88900F400408A
:1053000040B109EBC90000EB091031684900B0FB5E
:10531000F1F707E009EBC90000EB091031688900DB
:10532000B0FBF1F76420B7FBF0F004012009642121
:1053300001FB1078A88900F4004040B1322000EB56
:10534000C800B0FBF1F000F00700044308E0322091
:1053500000EB08106421B0FBF1F000F00F000443F3
:105360002C81BDE8FF874FF4165101600021818038
:10537000C18001810C21418100218181704710B5DC
:1053800002460020108A20F470600B884C8823436A
:105390008C882343CC8823431843108210BD0021FE
:1053A000018041808180C180704721B1828942F4AF
:1053B0000052828104E082894DF6FF731A40828197
:1053C0007047028B02F47F420283028B0A430283FE
:1053D000704721B1828942F40042828103E08289D0
:1053E000C2F30E028281704721B1828A42F40062C8
:1053F000828204E0828A4FF2FF731A4082827047F1
:10540000C1F308028280704701468888C0F3080013
:105410007047028A4FF6F0731A400282028A0A43EA
:105420000282704721B1828942F00202828104E047
:1054300082894FF6FD731A408281704782894FF24C
:10544000FF731A40828182890A4382817047028AEF
:105450004FF6DF731A400282028A0A4302827047C3
:1054600021B1028A42F48042028204E0028A4BF6B1
:10547000FF731A4002827047818941F001018181E6
:10548000704721B1828A42F00802828204E0828A57
:105490004FF6F7731A4082827047028BD2B20283B2
:1054A000028B42EA01220283704721B1828A42F0D4
:1054B0002002828204E0828A4FF6DF731A408282E1
:1054C000704721B1828A42F01002828204E0828A0F
:1054D0004FF6EF731A4082827047828A4FF6FB7351
:1054E0001A408282828A0A438282704721B1828A6C
:1054F00042F00202828204E0828A4FF6FD731A4073
:10550000828270471AB1838A0B43838202E0838AC6
:105510008B4383827047F0B50346002400260025A4
:10552000002040F66A17B94200D100BF1846C1F307
:10553000421401F01F06012707FA06F5012C01D1DC
:105540000C3004E0022C01D1103000E014301AB10C
:1055500007682F43076002E00768AF430760F0BDAC
:1055600002460020B1F5007F00D100BF13880B4038
:105570000BB1012000E00020704701F40072B2F589
:10558000007F00D100BFCA430280704770B5024659
:10559000002400230025002040F66A16B14200D105
:1055A00000BFC1F3421501F01F03012606FA03F301
:1055B000012D13D19689334017E0000000100140FF
:1055C0000044004000480040004C004000500040B3
:1055D0000014014000780040007C0040022D02D100
:1055E000168A334001E0968A33400C12012606FAEF
:1055F00004F41688344013B10CB1012000E00020FF
:1056000070BD10B50022002340F66A14A14200D1FB
:1056100000BF0A1201249440A3B2DC43048010BDF1
:1056200010B50446FE48844208D101210846FFF720
:10563000DEFC00210120FFF7DAFC9DE0B4F1804F91
:1056400008D101210846FFF7C1FC00210120FFF726
:10565000BDFC91E0F348844208D101210220FFF70C
:10566000B5FC00210220FFF7B1FC85E0EE48844242
:1056700008D101210420FFF7A9FC00210420FFF735
:10568000A5FC79E0E948844208D101210820FFF710
:105690009DFC00210820FFF799FC6DE0E44884425E
:1056A00008D101211020FFF791FC00211020FFF705
:1056B0008DFC61E0DF48844208D101212020FFF702
:1056C00085FC00212020FFF781FC55E0DA48844268
:1056D00008D101210220FFF78AFC00210220FFF7F8
:1056E00086FC49E0D548844209D101210804FFF72E
:1056F0007EFC00214FF48030FFF779FC3CE0D0487D
:10570000844209D101214804FFF771FC00214FF4C4
:105710000030FFF76CFC2FE0CA48844209D1012118
:105720008804FFF764FC00214FF48020FFF75FFC42
:1057300022E0C548844208D101214020FFF746FC01
:1057400000214020FFF742FC16E0C048844208D107
:1057500001218020FFF73AFC00218020FFF736FC72
:105760000AE0BB48844207D101218015FFF72EFCD7
:105770000021A015FFF72AFC10BD00220288A84BCB
:1057800098420ED0AC4B98420BD0B0F1804F08D06D
:10579000A44B984205D0A44B984202D0A34B984208
:1057A00004D14FF68F731A404B881A43A04B98428E
:1057B00007D0A04B984204D04FF6FF431A400B8904
:1057C0001A4302804B68C3620B880385944B98424E
:1057D00002D0994B984201D18B7A038601238382B0
:1057E00070474FF0FF31416000210180018141800D
:1057F000817270470185828270470A4600210188C4
:105800004FF68F7319401143018070474162704712
:10581000C16270470146486A70470146088D70476B
:1058200021B1028842F00202028004E002884FF6B1
:10583000FD731A400280704721B1028842F00402D1
:10584000028004E002884FF6FB731A400280704722
:1058500021B1028842F08002028004E002884FF603
:105860007F731A400280704702884FF6F7731A4020
:10587000028002880A430280704702884FF6FF4385
:105880001A40028002880A430280704721B10288D0
:1058900042F00102028004E002884FF6FE731A40D3
:1058A0000280704770B5002400220023058C4FF65B
:1058B000FE7635400584028C8388048B4FF68F7505
:1058C0002C40B51E2C400D882C43751E2A408D8916
:1058D0002A434D882A43524DA84202D0564DA84231
:1058E00013D14FF6F7752A40CD892A434FF6FB7541
:1058F0002A408D882A434FF6FF652B404FF6FF550F
:105900002B400D8A2B434D8A2B43838004838D6863
:105910004563028470BD70B5002400220023058C0D
:105920004FF6EF7635400584028C8388048B48F669
:10593000FF752C404FF6FF452C400D884FF6FF7643
:1059400006EA05252C434FF6DF752A408D8906EAC5
:1059500005152A434D8806EA05152A43304DA8420D
:1059600002D0354DA8421DD14FF67F752A40CD8912
:105970004FF6FF7606EA05152A434FF6BF752A4013
:105980008D8806EA05152A434FF6FF352B404FF266
:10599000FF752B400D8A06EA85052B434D8A06EAE2
:1059A00085052B43838004838D688563028470BDE5
:1059B00070B5002400220023058C4FF6FF663540A9
:1059C0000584028C8388848B4FF68F752C404FF6AC
:1059D000FC752C400D882C434FF6FF552A408D89CD
:1059E0004FF6FF7606EA05252A434D8806EA052587
:1059F0002A430B4DA84202D00F4DA84238D14FF296
:105A0000FF752A40CD894FF6FF7606EA05252A4321
:105A10004FF6FF352A408D8806EA05252A4319E00E
:105A2000000001400004004000080040000C00405D
:105A300000100040001400400004014000400140FC
:105A4000004401400048014000180040001C004094
:105A5000002000404EF6FF752B404DF6FF752B40A1
:105A60000D8A06EA05152B434D8A06EA05152B43D8
:105A7000838084838D68C563028470BD70B5002205
:105A800000230024058C4EF6FF7635400584038CF8
:105A90008488828B48F6FF752A404FF6FF452A40DE
:105AA0000D884FF6FF7606EA05252A434DF6FF7569
:105AB0002B408D8906EA05352B434D8806EA0535CE
:105AC0002B43FE4DA84202D0FD4DA84208D14BF613
:105AD000FF752C400D8A4FF6FF7606EA85152C439C
