:020000040800F2
:10000000184000208D470008350C0008370C000808
:100010003B0C00083F0C0008430C000800000000E7
:10002000000000000000000000000000470C000875
:10003000490C000800000000BF1B0108C16800084F
:10004000A7470008A7470008A7470008A7470008D8
:10005000A7470008A74700083B4600086F4600086E
:10006000B7460008FD46000845470008A7470008B6
:10007000A7470008A7470008A7470008A7470008A8
:10008000A7470008A7470008A7470008A747000898
:10009000A7470008A7470008A7470008591100080C
:1000A000A74700084B150008A7470008A747000806
:1000B000B91300086D120008D7310008A7470008DF
:1000C000A7470008A7470008A7470008A747000858
:1000D000A74700082B6B0008AF1A000895220008FC
:1000E000B9110008A7470008A7470008A74700085C
:1000F000A7470008A7470008A7470008A747000828
:10010000A7470008A74700086B2F0008A74700086B
:10011000A7470008A7470008A7470008A747000807
:10012000A7470008A7470008A7470008A7470008F7
:10013000A7470008A7470008A7470008A7470008E7
:10014000A7470008A7470008A7470008A7470008D7
:10015000A7470008A7470008A7470008A7470008C7
:10016000A7470008A7470008A7470008A7470008B7
:10017000A7470008A7470008A7470008A7470008A7
:10018000A7470008A747000800F002F800F06FF842
:100190000AA090E8000C82448344AAF10107DA45E2
:1001A00001D100F064F8AFF2090EBAE80F0013F0C5
:1001B000010F18BFFB1A43F001031847C42D0100BB
:1001C000E42D01000A444FF0000C10F8013B13F03D
:1001D000070408BF10F8014B1D1108BF10F8015BA0
:1001E000641E05D010F8016B641E01F8016BF9D193
:1001F00013F0080F1EBF10F8014BAD1C0C1B09D1EA
:100200006D1E58BF01F801CBFAD505E014F8016B5B
:1002100001F8016B6D1EF9D59142D6D370470000ED
:100220000023002400250026103A28BF78C1FBD8FF
:10023000520728BF30C148BF0B607047642910F0D7
:100240004581002070471FB512F0F3FB10F0A6FBAC
:1002500004000020002111F05FFE401C60600020BF
:10026000002111F043FEE0601FBD10B510BD10F07D
:100270006FFB1146FFF7E7FF00F0C7FA10F0F2FD41
:1002800003B4FFF7F2FF03BC06F0ACFB10B5FEA011
:1002900006F09DFCFD4806F09AFCFC49C91EC87B8F
:1002A00006F0A3FCF9480D3006F091FCF749C91E91
:1002B000087F06F09AFCF64806F089FCF3482130E6
:1002C00006F085FCF34806F082FC06F097FC10BDB2
:1002D0000EB500244CE000BF00BF00BF06F04CFE8E
:1002E000044600BF00BFEC480078401CEA49087093
:1002F00000BF00BF204606F043FE00BF00BF00BFA6
:10030000FFF7C4FF00BF00BF00BF06F035FE044684
:1003100000BF00BFE0480078401EDF490870084673
:100320000078A0B9DD480088002809DD00BF00BFC3
:10033000204606F025FE00BF00BF09F0C9F80DE019
:1003400000BF00BF204606F01BFE00BF06E000BF56
:1003500000BF204606F014FE00BF00BF00BF02A889
:1003600000210B460122CDE9001008460EF0ADFF3A
:10037000B1E70EB530E0CA48807F48B9C84890F868
:10038000200028B90121C6488177012003F0C3FF6E
:10039000C348007B40B9C248807B28B90120C049CE
:1003A0000873002003F0B7FFBD4890F8300050B943
:1003B000BB4890F8320030B90121B94880F83010BC
:1003C000022003F0A8FF02A800210B460122CDE97C
:1003D000001008460EF079FFCDE70EB50BE0B148EE
:1003E00003F04EF802A8002114230A46CDE90010BC
:1003F00008460EF06AFFF2E70EB50BE0A94803F0DD
:1004000039FC02A8002105230A46CDE90010084660
:100410000EF05BFFF2E70EB5002451E000BF00BF15
:1004200000BF06F0A9FD044600BF00BF9A4800784F
:10043000401C9949087000BF00BF204606F0A0FD8F
:1004400000BF00BF00BF984802689848016898A0A4
:100450000FF0E8FF00BF00BF00BF06F08DFD0446AF
:1004600000BF00BF8C480078401E8B4908700846CA
:100470000078A0B989480088002809DD00BF00BFC6
:10048000204606F07DFD00BF00BF09F021F80DE019
:1004900000BF00BF204606F073FD00BF06E000BFAE
:1004A00000BF204606F06CFD00BF00BF00BF02A8E1
:1004B000002132230A46CDE9001008460EF005FF60
:1004C000ACE70EB50BE000F0DFFD02A800214FF411
:1004D000FA730A46CDE9001008460EF0F6FEF2E780
:1004E00030B58BB00446002500BF06F00DFC0AA80D
:1004F0000CF077FB0AAA0121084608F000FC00BFB7
:1005000000BF00BF06F038FD054600BF00BF6248CF
:100510000078401C6049087000BF00BF284606F004
:100520002FFD00BF00BF00BF0AA8032100220592D3
:10053000CDE906210890104680210C225E4BCDE9C2
:100540000132CDE9031006200023AFF289025BA13E
:1005500000905D480CF01EFF0AA8032100220592BE
:10056000CDE906210890104680210C22574BCDE999
:100570000132CDE9031006200023AFF2651254A129
:10058000009056480CF006FF0AA8032100220592AD
:10059000CDE90621089010464FF480711922504B86
:1005A000CDE90132CDE9031005200023AFF2B712E7
:1005B0004CA100904F480CF0EDFE0AA80321002248
:1005C0000592CDE906210890104680210C224A4B65
:1005D000CDE90132CDE9031006200023AFF2052258
:1005E00046A100904A480CF0D5FE0AA8032100223B
:1005F0000592CDE906210890104680210C22454B3A
:10060000CDE90132CDE9031005200023AFF29D2290
:1006100041A1009046480CF0BDFE0AA8032100222B
:100620000592CDE906210890104680210C22414B0D
:10063000CDE90132CDE9031006200023AFF26F327D
:100640003DA1009042480CF0A5FE0AA938480EF0E2
:10065000BAFA0AA93E480EF0B6FA00BF00BF00BFC2
:1006600006F08AFC054600BF00BF0B480078401E1C
:10067000094908700846007820B908480088002811
:1006800072DD67E077E06FE047505300F31700201A
:100690005E1800202C1800208C0100205001002042
:1006A0004C17002006000020A0000020A40000201D
:1006B00025640925640D0A00780500206C65642016
:1006C0007461736B00000000B40400203C0800203B
:1006D0007072696E74207461736B0000780700207B
:1006E000000B0020636F6E74726F6C207461736B0B
:1006F000000000003C0A0020C40F0020696E7075E5
:10070000742063617074757265207461736B00008E
:10071000000F002088120020636162696E657420FA
:10072000636F6E74726F6C207461736B00000000F5
:10073000C41100204C15002067707320646174613F
:1007400020757064617465207461736B0000000033
:100750008814002000BF00BF284606F011FC00BF2F
:1007600000BF08F0B5FE0DE000BF00BF284606F050
:1007700007FC00BF06E000BF00BF284606F000FCF3
:1007800000BF00BF00BF0AA900200CF057FF0BB04C
:1007900030BD10B54FF4A06004F018F8A82006F0A2
:1007A0009BF800F053FC4FF4E13006F028F902F01A
:1007B000B3FA02F03FFBE5A00FF034FE04E000F0D6
:1007C00063FC642006F0E1F801F091FF0128F6D007
:1007D000E5A00FF027FE2921092002F079FB532123
:1007E0004FF6FF7002F078FC00F064FCE8A00FF018
:1007F00019FE02F0F3FEF5A00FF014FE0120F749F8
:100800000860F749C1F8880210BD10B58AB000240D
:10081000FFF7BFFF09A808F049F800BF00BF00BFFD
:1008200006F0AAFB044600BF00BFEE480078401C5B
:10083000EC49087000BF00BF204606F0A1FB00BFD6
:1008400000BF00BF09A8032100220592CDE90621BF
:100850000890104680210C22E34BCDE90132CDE90E
:10086000031003200023AFF28732E0A10090E2489A
:100870000CF090FD00BF00BF00BF06F07DFB0446FA
:1008800000BF00BFD7480078401ED6490870084610
:100890000078A0B9D9480088002809DD00BF00BF52
:1008A000204606F06DFB00BF00BF08F011FE0DE012
:1008B00000BF00BF204606F063FB00BF06E000BF9C
:1008C00000BF204606F05CFB00BF00BF00BF09A8C8
:1008D00008F0B5FA00200AB010BD10B54FF416703C
:1008E00000F059FDC64908600020C6490860012192
:1008F000C3482C3804F0FCFF00BFC34890F8380010
:100900000028FAD10021BE482C3804F0F1FF40F253
:10091000DC5000F040FDBD49C8620120BC490860C0
:100920000121BA4804F0E4FF00BFBA48006800287B
:10093000FBD1B749086000BFB64800680028FBD06B
:100940000021B24804F0D4FF10BD10B50021AF481B
:1009500004F0CEFF0020AC490880488088730873FB
:1009600048730021AC4804F0C3FF0020A649488228
:100970000021A548818280F820108177C177A048A6
:100980002C3804F0B5FF00209F49888400219E4840
:10099000C18480F8321080F8301080F8311010BD1A
:1009A0000246002003E000231354431CD8B207285A
:1009B000F9DB002003E000230B54431CD8B20328CA
:1009C000F9DB70472DE9F0412DED028BB0EE408A46
:1009D00006460D4600270024BDEEC80A10EE104A58
:1009E00000EE904AF8EEE00A78EE600A9FED8B1A6E
:1009F00060EE810AB0EE600A00F030FABDEEC00A87
:100A000010EE107A224686A130460FF017FD3A46C6
:100A100083A128460FF012FDBDEC028BBDE8F081EA
:100A200000B587B0002005900690049002900390D6
:100A3000009001907B487AA1026802A80FF0FEFCAA
:100A4000794877A1026868460FF0F8FC77A006F0B5
:100A5000BEF87748D0ED000AB0EE600A04A905A8F8
:100A6000FFF7B0FF05A806F0B2F804A806F0AFF84B
:100A700004A905A8FFF794FF6D48D0ED010AB0EE78
:100A8000600A04A905A8FFF79DFF05A806F09FF8D6
:100A900004A806F09CF804A905A8FFF781FF6448A4
:100AA000D0ED020AB0EE600A04A905A8FFF78AFF9C
:100AB00005A806F08CF804A806F089F804A905A892
:100AC000FFF76EFF5A48D0ED030AB0EE600A04A9A2
:100AD00005A8FFF777FF05A806F079F804A806F047
:100AE00076F804A905A8FFF75BFF5148D0ED040A8A
:100AF000B0EE600A04A905A8FFF764FF05A806F098
:100B000066F804A806F063F804A905A8FFF748FFF3
:100B10004748D0ED050AB0EE600A04A905A8FFF722
:100B200051FF05A806F053F804A806F050F804A9F0
:100B300005A8FFF735FF02A806F049F8684606F059
:100B400046F806F05BF807B000BD0000696E6974F6
:100B500069616C697A696E67206D707539323530FC
:100B60002E2E2E0D0A0000006D70753932353020A2
:100B7000696E697469616C697A6174696F6E20630A
:100B80006F6D706C657465642E2E2E0D0A0000006A
:100B90007374617274696E6720746F2063616C6333
:100BA000756C617465206F66667365742C646F6E16
:100BB000277420746F756368207468652076696592
:100BC00063686C652E2E2E0D0A0000006F6666733A
:100BD0006574206765742E2E2E0D0A008C0240422B
:100BE000000040428C010020B40200207374617246
:100BF00074207461736B0000F0010020500100202C
:100C00002C440140940241424C1700200000014056
:100C10008482404200824142000400400000C842F9
:100C200025640000DC000020E0000020494D550054
:100C300094190020704700BFFEE700BFFEE700BF29
:100C4000FEE700BFFEE77047704700000CB50020CC
:100C5000019000907648006840F480307449086044
:100C600000BF7348006800F4003000900198401CF9
:100C70000190009818B90198B0F5A04FF1D16C48D7
:100C8000006800F4003010B10120009001E0002065
:100C900000900098012846D165484030006840F037
:100CA00080506349403108606248006840F4404029
:100CB000604908605E48083000685D490831086096
:100CC0000846006840F4004008600846006840F4A8
:100CD000A05008605848091F0860081F006840F0CD
:100CE0008070091F086000BF5148006800F0007064
:100CF0000028F9D040F20570504908604C4808308F
:100D0000006820F003004A4908310860084600687E
:100D100040F00200086000BF45480830006800F05D
:100D20000C000828F8D10CBD10B54548006840F407
:100D30007000434908603E48006840F001003C49AB
:100D4000086000203A4908310860394800683D4988
:100D50000840374908603C48091D0860081F0068C2
:100D600020F48020091F0860002031490C31086000
:100D7000FFF76CFF4FF0006031498039086010BD0B
:100D800070B500200022022300240221284D0835DE
:100D90002D6805F00C0020B1042806D0082834D1B5
:100DA00007E02A4D2A4E356033E02A4D284E356043
:100DB0002FE01F4D2D1D2D68C5F380541C4D2D1D9A
:100DC0002D6805F03F0154B1224DB5FBF1F5184EE9
:100DD000361D3668C6F3881605FB06F209E01B4D82
:100DE000B5FBF1F5124E361D3668C6F3881605FBC5
:100DF00006F20F4D2D1D2D68C5F301456D1C6B00CE
:100E0000B2FBF3F5124E356003E0104D104E356025
:100E100000BF00BF064D08352D68C5F303150E4E03
:100E2000705D0B4D2D68C540094E356070BD0000EA
:100E3000003802400070004019544007003C024056
:100E400088ED00E0FFFFF6FE103000240024F400DF
:100E50001000002040787D0114000020B5EEC00A8B
:100E6000F1EE10FA03D2F1EE400AB0EE600A7047DC
:100E7000F0EE400A9FED6C0A20EE801ADFED6B1A4F
:100E800081EE210A704730B5024600240023107815
:100E9000557828449578441908784D7828448D78F9
:100EA00043199C4201D1002030BD0120FCE7C178EC
:100EB00000EE901AF8EE600A9FED5D1A70EEC10A1E
:100EC000F2EE041A80EEA11A817800EE901AF8EE84
:100ED000600ADFED571A70EEE10A71EE200A4178E0
:100EE00001EE101AB8EE411ADFED511A31EE611A17
:100EF000F2EE041A41EE210AB0EE600A01782D29C3
:100F000003D1F1EE400AB0EE600A70470146302985
:100F100003DB392901DC012070470020FCE7014692
:100F2000202901D1012070470020FCE770B52DED8C
:100F3000088B0546002400E0641C285DFFF7EFFFE6
:100F40000028F9D1285D2D2802D14FF0FF3000E0B4
:100F500001200646285D2D2802D0285D2B2800D1CF
:100F6000641C9FED348B17E0295DA1F1300011F076
:100F70006BFA41EC1A0B9FED310B53EC102B51EC3B
:100F8000180B11F0C7FA41EC1B0B53EC1A2B11F0A4
:100F90000BF841EC180B641C285DFFF7B7FF002825
:100FA000E2D1285D2E2800D1641C9FED269B21E014
:100FB000295DA1F1300011F047FA41EC1A0B9FEDC9
:100FC0001F0B53EC102B51EC180B11F0A3FA41EC52
:100FD0001B0B53EC1A2B10F0E7FF41EC180B9FEDA5
:100FE000170B53EC102B51EC190B11F093FA41EC49
:100FF000190B641C285DFFF789FF0028D8D1304603
:1010000011F022FA41EC1B0B53EC182B11F082FA71
:1010100041EC1A0B53EC192B11F082F841EC100B38
:10102000BDEC088B70BD0000D00F49400000344378
:10103000000040420000000000000000000000002E
:1010400000002440000000000000F03F1CB501211A
:10105000022003F04FFF4FF40070009001208DF844
:10106000040000208DF8060003208DF80500012003
:101070008DF8070069460D4803F09EFC4FF400719F
:101080000A4803F015FD1CBD0948006808B9012095
:1010900000E000200649086070470020044908600D
:1010A00070470120024908607047000000040240B8
:1010B000A482404200B585B00121102003F01AFF40
:1010C0004FF40850009000208DF8040003208DF8A4
:1010D000050000208DF807006946464803F06CFCC7
:1010E0004FF49040009000208DF807006946414879
:1010F00003F062FC0121880303F056FF092104205C
:1011000004F05DF80D21042004F059F84FF4085064
:10111000029000208DF80C000C208DF80D000120AD
:101120008DF80E0002A805F03FFB17208DF8100087
:1011300000208DF8110002208DF8120001208DF89A
:10114000130004A803F047FB28208DF8100004A822
:1011500003F041FB05B000BD10B507F03DFC4FF4B6
:10116000007005F087FB88B12348006828B1234848
:101170000068401C2149086004E020480068401EC7
:101180001E4908604FF4007005F07FFB202005F039
:1011900071FB70B11A48006820B90020194981F824
:1011A000360003E00120174981F83600202005F0C1
:1011B0006CFB07F022FC10BD10B507F00DFC4FF4DE
:1011C000005005F057FB90B10B480C30006828B177
:1011D0000D480068401C0C49086004E00A4800689B
:1011E000401E094908604FF4005005F04EFB07F01F
:1011F00004FC10BD001002402C02424228000020D6
:10120000148241424C170020240000207FB505467F
:101210000C460121022003F0B6FE0295ADF8044011
:101220000020ADF80C00ADF8060001A9FE4804F05E
:10123000D6FA0021FC4804F05BFB01221146FA4873
:1012400004F06EFF0121F84804F092FF1D208DF894
:10125000000000208DF8010003208DF8020001201D
:101260008DF80300684603F0B6FA7FBD10B507F0AD
:10127000B3FB0121EC4804F06AFF002857D002F0CC
:10128000DEFDEA48406900F0C000C02806D1E84809
:10129000808A401E81B2E64881820BE0E3484069C3
:1012A00000F0C000402805D1E148808A401C81B28E
:1012B000DF488182DE48818AC08A81420CD1DC48C5
:1012C00090F82000012803D10421D948C1772AE0F1
:1012D0000521D748C17726E0D548818A008B814215
:1012E00008D1D34890F82000012803D10521D04827
:1012F000C17718E0CE48C07F052814D1CC48818A38
:10130000408B081A0FD10021C948C17780F82010FE
:10131000C54804F0EDFAC7484088C5494882002115
:10132000C348817741840121BF4804F021FF07F0C1
:1013300064FB10BD7FB505460C460121084603F04D
:1013400022FE0295ADF804400020ADF80C00ADF887
:10135000060001A94FF0804004F041FA0122114635
:10136000900704F0DDFE0121880704F001FF1C2036
:101370008DF8000000208DF8010003208DF8020098
:1013800001208DF80300684603F025FA0121880743
:1013900004F0AEFA7FBD0146A74890FBF1F000EEE5
:1013A000900AF8EEE00AB0EE600AFCEEC00A10EE19
:1013B000900A401E80B2704710B507F00DFB012166
:1013C000880704F0C4FE00286FD00121880704F0CC
:1013D000CFFE9748C07F032804D0042809D00528F1
:1013E00018D10BE09248408C001D01B29048418416
:1013F00010E040F6B8318E4841840BE08C48B0F9DB
:101400002200002805DD8A48408C001F01B2884870
:10141000418400BF00BF864890F8200038B184495D
:10142000498C88B2FFF7B7FF7F492C3108608048AC
:1014300090F83100032804D0042809D0052818D1D9
:101440000BE07B48808E401C01B27948818610E019
:101450004FF49661764881860BE07548B0F9340008
:10146000002805DD7248808E401E01B270488186DA
:1014700000BF00BF6E4890F8320030B16C49898ED1
:1014800088B2FFF788FF6D4908606948407B0328F0
:1014900004D004280AD0052819D10CE06448008A39
:1014A000093000B26249088211E01BE04FF4965007
:1014B0005F4908820BE05E48B0F91000002805DDA6
:1014C0005B48008A093800B25949088200BF00BF52
:1014D0005748807B30B15649098A88B2FFF75BFFD5
:1014E0005749C86207F089FA10BD7FB505460C461A
:1014F0000121084603F058FD0295ADF80440002094
:10150000ADF80C00ADF8060001A94D4804F067F9EC
:1015100000214B4804F0ECF901221146484804F040
:10152000FFFD0121464804F023FE19208DF800003C
:1015300000208DF8010003208DF8020001208DF8B5
:101540000300684603F047F97FBD10B507F044FA81
:1015500001213B4804F0FBFD002853D002F076FC4B
:101560003848006800F00300012805D13048408861
:10157000401C2F4948800AE03248006800F0030010
:10158000032804D12A484088401E29494880284819
:1015900040882749898888420BD12548807B0128CB
:1015A00003D104202249487327E0052020494873CD
:1015B00023E01F484188C088814207D11C48807BB6
:1015C000012803D105201A49487316E01848407BCA
:1015D000052812D1164841880089081A0DD11449EE
:1015E000487388730021164804F082F91148008876
:1015F0000F4908800020088208730121104804F078
:10160000A3FD76E001210D482C3804F0A0FD002850
:101610006FD002F022FC0C48006800F02000202867
:1016200019D10348C08C11E00004004000000240C2
:101630004C1700200000002080841E002C44014034
:10164000000001401404024014080240401C81B212
:101650004D48C1840AE04D48006800F0200028B9D8
:101660004948C08C401E81B24748C1844648C18C5D
:10167000008D81420ED1444890F83200012804D1F7
:101680000421414880F831102FE005213E4880F8C0
:1016900031102AE03C48C18C408D814209D13A4842
:1016A00090F83200012804D10521374880F8311024
:1016B0001BE0354890F83100052816D13248C18C1E
:1016C000808D081A11D100212F4880F8311080F840
:1016D00032102F4804F00CF92E4880882A4988845B
:1016E00000212948818680F830100121284804F023
:1016F0002BFD07F082F910BD7FB505460C46012190
:10170000480403F051FC0295ADF804400020ADF808
:101710000C00ADF8060001A91D4804F060F8002196
:101720001B4804F0E5F801221146194804F0F8FCC2
:101730000121174804F01CFD19208DF8000000203D
:101740008DF8010003208DF8020001208DF80300C0
:10175000684603F040F87FBD704710B5142140F291
:10176000E730FFF753FD292140F2E730FFF7E2FDB4
:10177000292140F2E730FFF7B8FE292140F2E73097
:10178000FFF7BAFF10BD00004C17002014080240FC
:10179000004401400000002010B588B0044601213B
:1017A000082003F0A7FB0121480403F0ECFB07220B
:1017B0000521EB4803F08BF907220621E84803F0E6
:1017C00086F96020069002208DF81C008DF81D001F
:1017D00000208DF81E0001208DF81F0006A9E048AA
:1017E00003F0EAF802940020ADF80C00ADF80E000A
:1017F000ADF81000ADF814000C20ADF8120002A9ED
:10180000D84803F07CFD0121D64803F000FE0122F8
:1018100040F22551D34803F0B0FE26208DF8040095
:1018200000208DF805008DF8060001208DF80700D6
:1018300001A802F0D0FF08B010BD002004E0002194
:10184000C94A1154411CC8B20B28F8DB0021C74A11
:101850001170704710B52DED088BC34840785128A2
:1018600002D053287ED19DE0BF49C978090209B250
:10187000BD4A927841EA020010F0E6FD41EC1B0BF4
:101880009FEDBB0B53EC102B10F04AFC41EC1A0BF4
:101890009FEDB90B53EC102B10F03CFE41EC190BF3
:1018A0009FEDB70B53EC102B10F034FE41EC180BEE
:1018B00010F048FBB4490860AB494979090209B204
:1018C000A94A127941EA020010F0BEFD41EC1B0B5F
:1018D0009FEDA70B53EC102B10F022FC41EC1A0BE0
:1018E0009FEDA50B53EC102B10F014FE41EC190BDF
:1018F0009FEDA30B53EC102B10F00CFE41EC180BDA
:1019000010F020FBA14908609749C979090209B282
:10191000954A927941EA020010F096FD41EC1B0BCA
:101920009FED930B53EC102B10F0FAFB41EC1A0BCC
:101930009FED910B53EC102B10F0ECFD41EC190BCB
:101940009FED8F0B53EC102B10F0E4FD41EC180BC6
:1019500010F0F8FA8E4908608349497A090209B201
:10196000814A00E09FE0127A41EA020010F06CFD2B
:1019700041EC1A0B9FED870B53EC102B10F0D0FBB2
:1019800041EC190B9FED850B53EC102B10F00CFB69
:1019900041EC180B10F0D6FA824908600120824908
:1019A000087080E07049C978090209B26E4A9278DD
:1019B00041EA020010F048FD41EC1A0B9FED6C0B60
:1019C00053EC102B10F0ACFB41EC190B9FED770B97
:1019D00053EC102B10F09EFD41EC180B10F0B2FAF6
:1019E0007449086060494979090209B25E4A12796E
:1019F00041EA020010F028FD41EC1A0B9FED5C0B50
:101A000053EC102B10F08CFB41EC190B9FED670B86
:101A100053EC102B10F07EFD41EC180B10F092FAF5
:101A2000654908605049C979090209B24E4A92795C
:101A300041EA020010F008FD41EC1A0B9FED4C0B3F
:101A400053EC102B10F06CFB41EC190B9FED570B76
:101A500053EC102B10F05EFD41EC180B10F072FAF5
:101A6000564908604049497A090209B23E4A127A49
:101A700041EA020010F0E8FC41EC1A0B9FED450B27
:101A800053EC102B10F04CFB41EC190B9FED430B6A
:101A900053EC102B10F088FA41EC180B10F052FAAE
:101AA0004049086000BF00BFBDEC088B10BD10B5F9
:101AB00040F225512B4803F09BFD00B32948001D3F
:101AC00000882949294A1278885428480078401CFF
:101AD0002649087024480078552801D0FFF7ADFE4C
:101AE000224800780B280DD11F480078552807D1CF
:101AF000FFF7B0FEFFF7A1FE01203149087001E0B9
:101B0000FFF79BFE10BD00BF1649098801F0400198
:101B10000029F9D01349091D0880704700B5024615
:101B20001078FFF7F0FF5078FFF7EDFF00BD00B52C
:101B3000024603E01078FFF7E6FF521C10780028F9
:101B4000F8D100BD00B50246002305E01078FFF78C
:101B5000DAFF521C581CC3B20B2BF7DB00BD000090
:101B6000000C024000440040E41700202C0000203C
:101B7000000000000000E0400000000000001040F5
:101B80009A999999999923403000002034000020B7
:101B900038000020000000000040754000000000F8
:101BA00000003540480000202D000020000000000B
:101BB00000806640400000203C00002044000020DF
:101BC0002E00002010B588B004460121022003F049
:101BD00091F90121880403F0D6F907220A21F94876
:101BE00002F075FF07220B21F64802F070FF4FF458
:101BF0004060069002208DF81C008DF81D0000202A
:101C00008DF81E0001208DF81F0006A9ED4802F096
:101C1000D3FE02940020ADF80C00ADF80E00ADF834
:101C20001000ADF814000C20ADF8120002A9E6482F
:101C300003F065FB0121E44803F0E9FB012240F2D7
:101C40002551E14803F099FC27208DF8040001207C
:101C50008DF805008DF806008DF8070001A802F048
:101C6000BAFD08B010BD002004E00021D74A11548D
:101C7000411C88B2D64909788842F6DB0021D44A53
:101C800011707047F0B52DED048B8BB0142106A8B0
:101C90000EF089FC0024002500260027142101A84D
:101CA0000EF081FC9FEDCB0AB0EE408A00BF09E048
:101CB000C648005D2C2803D106A8C455781CC7B2BD
:101CC000601CC4B2C2480078401C8442F0DB00258E
:101CD000F6E006A8405D401CC4B207E0BB48005DCA
:101CE00001A98855701CC6B2601CC4B206A9681C44
:101CF000085CA042F2DC0C2D4FD2DFE805F0064F65
:101D0000545A5F656A7076B8C6CC01A80EF01AFC0A
:101D100000EE100AB8EEC08A9FEDAF0AC8EE000AC6
:101D2000BCEEE00A10EE100AAC49087008460078D4
:101D300042F2107110FB01F000EE100AB8EEC00A7A
:101D400038EE400ADFEDA60A80EE201ABCEEC10A8A
:101D500010EE100AA14948700846007842F210714E
:101D600010FB01F000EE100AB8EEC00A78EE400A4F
:101D70009A484078642110FB01F000EE100AB8EE9A
:101D8000C00A30EEC00ABCEEC00A10EE100A934939
:101D90008870084600780830087083E09DF80400D9
:101DA0008E49C8707EE001A98C48001D0EF0D7FB5B
:101DB00078E09DF804008949087473E001A9874818
:101DC00011300EF0CCFB6DE09DF80400834948779C
:101DD00068E001A981481E300EF0C1FB62E001A954
:101DE0007E4826300EF0BBFB5CE001A80EF0AAFB9B
:101DF00000EE100AB8EEC08ABCEEC80A10EE100A57
:101E000042F21071B0FBF1F0744981F82D000846E0
:101E100090F82D10BCEEC80A10EE100A42F21072B3
:101E200002FB11006421B0FBF1F06C4981F82E0037
:101E3000084690F82D00114610FB01F000EE100A44
:101E4000B8EEC00A78EE400A644890F82E0064218B
:101E500010FB01F000EE100AB8EEC00A30EEC00A26
:101E6000BCEEC00A10EE100A5C4908861AE001A810
:101E7000FFF75CF8B0EE409AF0EE609A51EC190B67
:101E800010F060F8554948630CE09DF80400534990
:101E900081F8380006E001A80EF054FB4F4981F8A4
:101EA000390000BF00BF04E0002001A98855701E62
:101EB000C6B2002EF8DC00208DF80400681CC5B204
:101EC000781EA8423FF705AF0BB0BDEC048BF0BD08
:101ED000F0B52DED028B8BB0142106A80EF063FB3C
:101EE0000024002500260027142101A80EF05BFB2A
:101EF0009FED380AB0EE408A00BF09E03348005D2C
:101F00002C2803D106A8C455781CC7B2601CC4B2E3
:101F10002F480078401C8442F0DB0025C6E0102DDD
:101F200012DA06A8405D401CC4B207E02748005DF5
:101F300001A98855701CC6B2601CC4B206A9681CF1
:101F4000085CA042F2DC13E0102D11D19DF82800AE
:101F5000401CC4B207E01D48005D01A98855701CF3
:101F6000C6B2601CC4B29DF82800401DA042F2DC3D
:101F7000112D19D2DFE805F009191F383E444A50E7
:101F8000565C62686E747A80860001A80EF0DAFAF8
:101F900000EE100AB8EEC00AB0EE408ABCEEC80AE5
:101FA00010EE100A0F49087072E001A80EF0CAFA8C
:101FB0000C4948706CE001A80EF0C4FA0949887019
:101FC00066E0000000040240004800409C18002029
:101FD0004C0000200000000000401C46401800207B
:101FE0000000C8421E18002001A80EF0ABFAF94903
:101FF000C8704DE001A80EF0A5FAF649087147E057
:1020000001A80EF09FFAF349487141E001A80EF0D3
:1020100099FAF04988713BE001A80EF093FAED4976
:10202000C87135E001A80EF08DFAEA4908722FE078
:1020300001A80EF087FAE749487229E001A80EF0DE
:1020400081FAE449887223E001A80EF07BFAE149A5
:10205000C8721DE001A80EF075FADE49087317E09A
:1020600001A80EF06FFADB49487311E001A9D948C5
:102070000E300EF074FA0BE001A9D64813300EF0C2
:102080006EFA05E001A9D34818300EF068FA00BFD7
:1020900000BF04E0002001A98855701EC6B2002EC2
:1020A000F8DC00208DF80400681CC5B2BD42FFF6C4
:1020B00036AF0BB0BDEC028BF0BDF0B52DED048B4F
:1020C00089B0142104A80EF06EFA00240025002621
:1020D000002700200190029003901FED420AB0EE0D
:1020E000408A00BF09E0BC48005D2C2803D104A849
:1020F000C455781CC7B2601CC4B2B8480078401CF4
:102100008442F0DB002599E004A8405D401CC4B285
:1021100007E0B148005D01A98855701CC6B2601C7B
:10212000C4B204A9681C085CA042F2DC092D7AD272
:10213000DFE805F0054C52575D62676D730001A83A
:10214000FEF7F4FEB0EE409AF0EE609A51EC190BF7
:102150000FF0F8FE08EE100ABCEEC80A10EE100AE6
:1021600042F21071B0FBF1F09D4908700846017809
:10217000BCEEC80A10EE100A42F2107202FB110007
:102180006421B0FBF1F0964948700846007811468A
:1021900010FB01F000EE100AB8EEC00A78EE400A1B
:1021A0008F484078642110FB01F000EE100AB8EE71
:1021B000C00A30EEC00ABCEEC00A10EE100A884910
:1021C000887008460078083008702CE001A984481F
:1021D000C01C0EF0C4F926E09DF804008049C873C5
:1021E00021E001A97E4810300EF0B9F91BE09DF8FE
:1021F00004007B49087716E09DF804007849487789
:1022000011E001A80EF09EF9754988770BE001A94D
:1022100073481F300EF0A3F905E001A9704824307F
:102220000EF09DF900BF00BF04E0002001A9885511
:10223000701EC6B2002EF8DC681CC5B2781EA8421B
:102240003FF762AF09B0BDEC048BF0BD38B500209C
:102250000090032406E06048015DE01E0DF80010C8
:10226000601CC4B2072CF6DB5EA16846FEF70BFECD
:1022700008B9FFF722FF5CA16846FEF704FE08B923
:10228000FFF726FE59A16846FEF7FDFD08B9FFF7E6
:10229000F9FC38BD10B506F09FFB40F225515448BB
:1022A00003F0A6F918B35248001D00884A494B4A6A
:1022B0001278885449480078401C484908704648BC
:1022C0000078242802D0FFF7CEFC10E043480078C5
:1022D000401E4149085C0A2809D140480078801E08
:1022E000085C0D2803D1FFF7B1FFFFF7BCFC06F037
:1022F00084FB10BDF0B52DED028B8BB0142106A828
:102300000EF051F90025002400260027142101A811
:102310000EF049F900BF09E02F48405D2C2803D199
:1023200006A8C555781CC7B2681CC5B22B480078F2
:10233000401C8542F0DB00249CE0781EA04212DDA8
:1023400006A8005D401CC5B207E02348405D01A916
:102350008855701CC6B2681CC5B206A9601C085C12
:10236000A842F2DC0CE0781EA04209D106A8005D6C
:10237000401CC5B21848405D01A98855701CC6B202
:10238000092C69D2DFE804F0051318383D4B505E84
:10239000630001A80FF050FCB0EE408AF0EE608AB6
:1023A00051EC180B0FF0CEFD1249086054E09DF877
:1023B0000400104908714FE001A80FF03DFCB0EE99
:1023C000408AF0EE608A51EC180B0FF0BBFD094912
:1023D000886041E01E1800209C1800204C0000205E
:1023E000F01700204747410047534100524D43003A
:1023F000004800407C1800209DF80400264908731E
:102400002AE001A80FF018FCB0EE408AF0EE608AD6
:1024100051EC180B0FF096FD1F4908611CE09DF868
:1024200004001D49087517E001A80FF005FCB0EE87
:10243000408AF0EE608A51EC180B0FF083FD1649CC
:10244000886109E09DF804001349087704E09DF8CD
:1024500004001149487700BF00BF04E0002001A933
:102460008855701EC6B2002EF8DC00208DF80400DE
:10247000601CC4B2BC42FFF660AF0BB0BDEC028B77
:10248000F0BD00BF0549098801F040010029F9D0DD
:102490000249091D088070477C1800200048004050
:1024A00070B506460C46154600F09AFA304600F024
:1024B00043FB00F0D6FA18B100F0B4FA012070BD69
:1024C000204600F039FB00F0CCFA284600F034FB3F
:1024D00000F0C7FA00F0A6FA0020F0E770B5044655
:1024E0000025B82C01DB012510E05C2C01DB022566
:1024F0000CE0292C01DB032508E0142C01DB04256A
:1025000004E00A2C01DB052500E006252A461A21F5
:10251000D020FFF7C5FF70BD70B50446B4F57A7FD3
:1025200001DD4FF47A74042C00DA04244FF47A703D
:1025300090FBF4F0401EC5B22A461921D020FFF7C7
:10254000AFFF0546264604EBD671C1F34F00FFF7F7
:10255000C5FF70BD70B504460D4600F041FA204637
:1025600000F0EAFA00F07DFA284600F0E5FA00F003
:1025700078FA00F035FA611CC8B200F0DDFA00F01C
:1025800070FA002000F005FB064600F04BFA3046DA
:1025900070BD2DE9F04106460F4614461D4600F079
:1025A0001FFA304600F0C8FA00F05BFA20B100F0E4
:1025B00039FA0120BDE8F081384600F0BDFA00F09C
:1025C00050FA00F00DFA711CC8B200F0B5FA00F034
:1025D00048FA0DE0012C04D1002000F0DAFA28704E
:1025E00003E0012000F0D5FA2870601EC4B26D1C13
:1025F000002CEFD100F016FA0020DBE77CB5044692
:102600000D46164602223721D020FFF749FF062249
:102610000A211820FFF744FF072004F0B6F96B46A3
:10262000062203211820FFF7B4FF08B101207CBD6A
:102630009DF800009DF8011040EA012000B22080C2
:102640009DF802009DF8031040EA012000B22880A6
:102650009DF804009DF8051040EA012000B230808A
:102660000020E4E710B502223721D020FFF718FF41
:102670000A2004F08AF901220B211820FFF710FF2D
:1026800000211820FFF766FF0446482C1BD10722C3
:102690000A211820FFF704FF0A2004F076F9B64A51
:1026A000911E881EFFF7AAFF00220A211820FFF7BB
:1026B000F7FE0A2004F069F906220A211820FFF724
:1026C000EFFE002010BD0120FCE710B50446E00637
:1026D000020E1C21D020FFF7E3FE10BD10B504460A
:1026E000E006020E1B21D020FFF7DAFE10BD10B568
:1026F000002400F057F980226B21D020FFF7D0FE94
:10270000642004F042F900226B21D020FFF7C8FEBC
:102710000320FFF7E3FF0020FFF7D7FF3220FFF78A
:10272000FBFE00223821D020FFF7BAFE00226A21EA
:10273000D020FFF7B5FE00222321D020FFF7B0FE06
:1027400080223721D020FFF7ABFEFFF78BFF7521EA
:10275000D020FFF7FFFE0446712C11D101226B211E
:10276000D020FFF79DFE00226C21D020FFF798FEBD
:102770003220FFF7D1FEC820FFF7B0FE002010BDC9
:102780007EA00DF04FFE0120F9E710B504460222AD
:102790003721D020FFF784FE0A2004F0F6F801224A
:1027A0000A211820FFF77CFE0A2004F0EEF8002131
:1027B0001820FFF7CFFE20802088482801D1002074
:1027C00010BD0120FCE738B504466B4602224721C4
:1027D000D020FFF7DEFE9DF801009DF8001040EAD2
:1027E000012000B2208038BD2DE9F04180460D4621
:1027F00016461F4600F0F4F8404600F09DF900F040
:1028000030F920B100F00EF90120BDE8F081284632
:1028100000F092F900F025F900240BE0385D00F09B
:102820008BF900F01EF918B100F0FCF80120ECE77C
:10283000601CC4B2B442F1DB00F0F4F80020E4E71D
:1028400030B52DED068B81B004466B460222412146
:10285000D020FFF79EFE9DF801009DF8001040EA91
:10286000012005B228460FF0EFFD41EC1A0B9FED59
:10287000490B53EC102B0FF053FC41EC190B9FED5F
:10288000470B53EC102B0FF08FFB41EC180B0FF0A4
:1028900059FB2060002001B0BDEC068B30BD7CB53B
:1028A00004460D4616466B4606224321D020FFF70C
:1028B00070FE08B101207CBD9DF801009DF800105C
:1028C00040EA012000B220809DF803009DF802102C
:1028D00040EA012000B228809DF805009DF8041010
:1028E00040EA012000B230800020E4E77CB50446D5
:1028F0000D4616466B4606223B21D020FFF749FEC7
:1029000008B101207CBD9DF801009DF8001040EA4F
:10291000012000B220809DF803009DF8021040EADB
:10292000012000B228809DF805009DF8041040EABF
:10293000012000B230800020E4E738B504460D469F
:102940006B4604223B21D020FFF723FE08B1012073
:1029500038BD9DF801009DF8001040EA012000B24A
:1029600020809DF803009DF8021040EA012000B28B
:1029700028800020ECE70000640000204D5055390D
:1029800032353020496E6974204661696C2E2E2ED6
:102990000D0A000052B81E85EBDD744000000000F7
:1029A000000035401CB50121022002F0A3FAC0202E
:1029B000009001208DF8040000208DF8060003200F
:1029C0008DF8050001208DF807006946CF4801F019
:1029D000F3FF0120CE490860CE49C1F89C021CBD1E
:1029E00010B5CA48006820F44040C849086008464D
:1029F000006840F4804008600120C549091D086056
:102A0000C449C1F89802042003F095FF0020C04992
:102A1000091D0860042003F08EFF0020BD49C1F8A5
:102A2000980210BD10B5B948006820F44040B7497D
:102A300008600846006840F4804008600020B449FF
:102A40000860B449C1F89C02042003F074FF01201F
:102A5000AF490860AF49C1F89C02042003F06BFF46
:102A600010BD10B50024A948006820F44040A749D3
:102A700008600846006808600120A549091D086033
:102A800003F059FF0120A349C1F8980203F053FF56
:102A900007E0601CC4B2FA2C03DDFFF7C3FF01207E
:102AA00010BD9B487C3800680028F2D19849086026
:102AB00000BFF5E710B5002095490860934800680D
:102AC00020F44040914908600846006840F4804086
:102AD000086000208F49C1F89C02022003F02BFF00
:102AE00001208B490860022003F025FF002089495E
:102AF000C1F8980210BD10B50020854908608348D0
:102B0000006820F44040814908600846006840F4AD
:102B10008040086001207F49C1F89C02022003F038
:102B20000AFF01207A490860022003F004FF002018
:102B30007849C1F8980210BD70B504467348006822
:102B400020F44040714908600846006840F4804025
:102B5000086000206E490860002517E0E0096C4914
:102B6000091D08606006040E022003F0E4FE012047
:102B70006849C1F89802022003F0DDFE0020644994
:102B80000860022003F0D7FE681CC5B2082DE5DB03
:102B900070BD70B5054600245C48006820F44040D4
:102BA0005A490860084600680860002616E00020C0
:102BB00057490860022003F0BEFE01205549C1F8C4
:102BC00098026006040E52487C38006808B1601C08
:102BD000C4B2012003F0AFFE701CC6B2082EE6DBC3
:102BE00015B9FFF788FF01E0FFF764FF204670BDCD
:102BF0002DE9F04105460F4614461E46FFF7F0FE4C
:102C0000002141EA4501C8B2FFF796FFFFF729FF0F
:102C100020B1FFF707FF0020BDE8F0813846FFF73D
:102C20008BFFFFF71EFFFFF7DBFE012101EB4501E4
:102C3000C8B2FFF781FFFFF714FF0DE00120FFF797
:102C4000A8FF3070012C02D1FFF755FF01E0FFF71C
:102C500031FF761C601EC4B2002CEFD1FFF7E2FEFC
:102C60000120D9E72DE9F04105460E461746984662
:102C7000FFF7B6FE002141EA4501C8B2FFF75CFF4D
:102C8000FFF7EFFE20B1FFF7CDFE0020BDE8F08199
:102C90003046FFF751FFFFF7E4FE00240BE018F881
:102CA0000400FFF749FFFFF7DCFE18B1FFF7BAFE9B
:102CB0000020EBE7641CBC42F1DBFFF7B3FE012010
:102CC000E4E72DE9F04104460D4616461F463B4613
:102CD000324629462046FFF7C5FF10B10020BDE867
:102CE000F081FF20FBE72DE9F04104460D46164632
:102CF0001F463B46324629462046FFF779FF10B172
:102D00000020BDE8F081FF20FBE700000004024046
:102D1000988240420080404200B58DB001210846B3
:102D200002F0E8F80121080202F03EF9A0200B9021
:102D300003208DF8300000208DF833000BA93848AF
:102D400001F03AFE0121080202F083F900214FF45C
:102D5000807002F07EF9002007900A9009904FF4ED
:102D60008030089007A803F019FB002001908DF82F
:102D700008008DF809000390059001208DF81800D7
:102D800001A9284803F0DBFA0121264803F01DFBC6
:102D90000DB000BD10B5044607230122214621488D
:102DA00003F053FB1F4803F0ACFB00BF02211D489A
:102DB00003F0C8FC0028F9D01A4803F0DEFB10BD70
:102DC0002DE9F04107460C460025002608E038466C
:102DD000FFF7E0FF0544052003F0D7FD701CC6B2E5
:102DE000A642F4DBB5FBF4F080B2BDE8F081F8B5A3
:102DF0000024002505210846FFF7E2FF04460521CF
:102E00000720FFF7DDFF054668460CF037FC00EBB6
:102E1000800633462A46214603A00DF003FBF8BD89
:102E20000000024000200140256409256409256452
:102E30000D0A00001CB50121042002F05BF84FF4DC
:102E4000C050009001208DF8040000208DF806008D
:102E500003208DF8050001208DF8070069461A4807
:102E600001F0AAFD4FF40061174801F021FE4FF474
:102E70008051154801F01CFE1CBD1448006808B9BB
:102E8000012000E0002011490860704700200F4930
:102E90000860704701200D49086070470B48001D0D
:102EA000006808B9012000E000200849091D0860F9
:102EB000704700200549091D08607047012003493B
:102EC000091D08607047000000080240AC02414242
:102ED00030B587B005460C460121082002F053F8B2
:102EE0000121052002F006F80595ADF810400020FC
:102EF000ADF81200ADF8180004A9654802F06FFCA7
:102F000001221146624803F00BF90121604802F0EA
:102F1000EFFC32208DF80C0001208DF80D00002010
:102F20008DF80E0001208DF80F0003A801F053FC6E
:102F30001F20019001208DF8080003208DF8090062
:102F400000208DF80A0001208DF80B0001A95148DE
:102F500001F032FD0420019001208DF8080001A944
:102F60004D4801F029FD07B030BD10B505F034FD26
:102F70000121474803F0EBF8012859D19FED470B99
:102F800053EC102B474890ED000B51EC100B0FF059
:102F90000BF8444A03C29FED410B53EC102B4248FF
:102FA00090ED000B51EC100B0EF0FEFF3E4A03C2F9
:102FB0003E4890ED000B53EC102B3A4890ED000B7F
:102FC00051EC100B0FF0A4FB11D89FED390B3548D5
:102FD00080ED000B3848006808B9012000E00020AF
:102FE0003549086035480068401C34490860344859
:102FF00090ED000B53EC102B2B4890ED000B51EC97
:10300000100B0FF085FB13D89FED290B264880EDA0
:10301000000B2948001F006808B9012000E00020CB
:103020002549091F086027480068401C2549086099
:103030000121174803F09CF805F0DFFC10BD10B526
:103040002DED088B044620460FF015FA41EC1B0BC2
:1030500053EC1B2B9FED1C0B51EC100B0FF060F889
:1030600041EC1A0B9FED1A0B53EC102B0FF058F894
:1030700041EC190B0EF066FF08EE100A1CB9B7EE12
:10308000000AB0EE408AB0EE480ABDEC088B10BDD5
:10309000000C0040000002400008024000000080D8
:1030A000B5F8D43E80000020880000209000002069
:1030B000000000000000000084024042A400002044
:1030C00098000020A0000020000000000000F03F59
:1030D000000000000000004030B589B004460D46F5
:1030E0000121042001F04FFF0121082001F002FF1F
:1030F0004FF47040079002208DF8200003208DF8D7
:10310000210000208DF8220002208DF8230007A95D
:10311000FE4801F051FC02220C21FC4801F0D7FCD2
:1031200002220D21F94801F0D2FC02220E21F748BB
:1031300001F0CDFC02220F21F44801F0C8FCADF8EB
:1031400010500020ADF812000594ADF8180004A945
:10315000EF4802F044FB0020ADF80000ADF802009B
:103160000120ADF804000020ADF80600ADF808001D
:103170006946E74802F00AFF0420ADF800006946FE
:10318000E34802F003FF0820ADF800006946E0487C
:1031900002F0FCFE0C20ADF800006946DC4802F0AD
:1031A000F5FE1E208DF80C0002208DF80D00002089
:1031B0008DF80E0001208DF80F0003A801F00BFB25
:1031C00001221F21D24802F0ABFF0121D04802F0BA
:1031D0008FFB09B030BD10B505F0FEFBCD4800787F
:1031E00000F0800000284CD10121C94802F0AFFF57
:1031F000D0B1C848007800F04000A8B1C5480078B8
:1032000000F03F003F280AD1C248007840F080001B
:10321000C04908704FF6FF70BF49086004E0BD4820
:103220000078401CBB4908700221B94802F08FFFAA
:1032300038B3B848007800F0400078B1B54800785D
:1032400040F08000B3490870B14802F01DFFB24958
:1032500008600021AE4802F066FD12E00020AD4992
:103260000870AD4908600021A94802F001FBA94897
:10327000007840F04000A74908700221A44802F0FD
:1032800052FDA648007800F0800000284CD10121B2
:103290009F4802F05CFFD0B1A048007800F04000E9
:1032A000A8B19E48007800F03F003F280AD19B4813
:1032B000007840F08000994908704FF6FF709849F7
:1032C000086004E095480078401C94490870042187
:1032D0008F4802F03CFF38B39048007800F040007F
:1032E00078B18E48007840F080008C49087088489A
:1032F00002F0CDFE8A4908600021854802F025FDD4
:1033000012E0002085490870854908600021804846
:1033100002F0AEFA8148007840F040007F49087022
:1033200002217B4802F011FD7E48007800F0800009
:1033300000284CD10121764802F009FFD0B179482C
:10334000007800F04000A8B17648007800F03F0017
:103350003F280AD17348007840F080007149087016
:103360004FF6FF707049086004E06E480078401C1A
:103370006C4908700821664802F0E9FE38B36948D4
:10338000007800F0400078B16648007840F0800096
:10339000644908705E4802F07DFE634908600021C0
:1033A0005B4802F0ECFC12E000205E4908705E49C8
:1033B00008600021564802F05BFA5A48007840F055
:1033C0004000584908700221514802F0D8FC574883
:1033D000007800F08000C0BB01214D4802F0B7FE2C
:1033E000D0B15248007800F04000A8B14F480078B2
:1033F00000F03F003F280AD14C48007840F08000A0
:103400004A4908704FF6FF704949086004E0474890
:103410000078401C4549087010213D4802F097FE95
:1034200098B14248007800F0400078B13F480078F9
:1034300040F080003D490870354802F02EFE3C49BE
:1034400008600021324802F0B4FC12E00020374945
:1034500008703749086000212D4802F009FA334806
:10346000007840F04000314908700221284802F0FD
:10347000A0FC1F21264802F07BFE05F0BEFA10BD1D
:103480000021018041808180C1802249097801F0BA
:10349000800179B11F49097801F03F01818081885D
:1034A0004942818081881C4A128811448180002110
:1034B000184A11701949097801F0800179B117494A
:1034C000097801F03F01C180C1884942C180C188AB
:1034D000134A12881144C1800021104A1170114909
:1034E000097801F0800179B10E49097801F03F01B6
:1034F000018001884942018001880B4A12881144E9
:1035000001800021074A1170084913E0000C0240B5
:1035100000080040A8000020AC000020A900002006
:10352000B0000020AA000020B4000020AB00002062
:10353000B8000020097801F0800179B124490978A8
:1035400001F03F0141804188494241804188214A40
:1035500012881144418000211D4A1170018840F6F3
:103560000202914203DC0188B1F57A7F02DA1A493E
:1035700009880180418840F60202914203DC4188BB
:10358000B1F57A7F02DA144949884180818840F692
:103590000202914203DC8188B1F57A7F02DA0E499A
:1035A00089888180C18840F60202914203DCC1888B
:1035B000B1F57A7F02DA0849C988C1800188064AD4
:1035C00011804188518081889180C188D180704765
:1035D000AB000020B8000020BC00002010B52DED8D
:1035E000028B86B041F2883008EE100A002003906A
:1035F0000490059000900190029018EE104A88E027
:10360000FE4A911E881EFFF771F9FD4A911E881E21
:10361000FFF745F9FA48001FB0F9000000EE100A64
:10362000B8EEC00ADFEDF70A20EE200ADFEDF60A59
:1036300080EE201A9DED030A31EE000A8DED030A9B
:10364000EF48001FB0F9020000EE100AB8EEC00A01
:10365000DFEDEC0A60EE200A9FEDEB1A80EE810AA6
:10366000DDED040A30EE200A8DED040AE448001F67
:10367000B0F9040000EE100AB8EEC00ADFEDE10A6E
:1036800020EE200ADFEDE00A80EE201A9DED050A0B
:1036900031EE000A8DED050AD848001FB0F9000090
:1036A00000EE100AB8EEC00A9FEDD71AC0EE010A6C
:1036B0009DED000A9FEDD51A00EE810A8DED000AFE
:1036C000CE48001FB0F9020000EE100AB8EEC00AA2
:1036D0009FEDCD1AC0EE010A9DED010A9FEDCB1AB8
:1036E00000EE810A8DED010AC448001FB0F9040004
:1036F00000EE100AB8EEC00A9FEDC31AC0EE010A30
:103700009DED020A9FEDC11A00EE810A8DED020ABD
:10371000641E002C7FF474AF9DED030AF8EE480A96
:1037200080EE201ABA4880ED001A9DED040AF8EEEA
:10373000480A80EE201A80ED011A9DED050AF8EE88
:10374000480A80EE201A80ED021A9DED000AF8EE7C
:10375000480A80EE201AAF4880ED001A9DED010A5C
:10376000F8EE480A80EE201A80ED011A9DED020A5B
:10377000F8EE480A80EE201A80ED021A06B0BDEC81
:10378000028B10BD00B52DED028B81B09FEDA20A1A
:10379000B0EE408A994A911E881EFFF7A7F8984A12
:1037A000911E881EFFF77BF89448001FB0F90000B7
:1037B00000EE100AB8EEC00A9FED931AC0EE010A9F
:1037C000944890ED000A9FED911A10EE810A9348FB
:1037D00080ED050A924880ED000A8848001FB0F984
:1037E000020000EE100AB8EEC00A9FED871AC0EE84
:1037F000010A884890ED010A9FED841A10EE810AB3
:10380000864880ED060A864880ED010A7B48001F45
:10381000B0F9040000EE100AB8EEC00A9FED7A1A63
:10382000C0EE010A9FED790A20EE800A7C4880ED07
:10383000020A7348001FB0F9000000EE100AB8EE4B
:10384000C00A9FED711AC0EE010A714890ED000A9E
:103850009FED6C1A10EE810A714880ED030A6848EA
:10386000001FB0F9020000EE100AB8EEC00A9FED8A
:10387000661AC0EE010A664890ED010A9FED611AD2
:1038800010EE810A664880ED040A5D48001FB0F919
:10389000040000EE100AB8EEC00A9FED5B1AC0EEFD
:1038A000010A5B4890ED020A9FED561A10EE810A5C
:1038B0005C4880ED000A5A4880ED050A68460BF026
:1038C000DDFE00EE100AB8EE400AF1EE040A20EE2A
:1038D000200ADFED550A80EE201AB0EE418A5348E7
:1038E00090ED000A78EE400A514890ED000A4D48EC
:1038F00090ED001A01EE200A4D4880ED000A4B4879
:1039000080ED008A4A4890ED000A444880ED040AA0
:10391000444890ED000A414880ED030A444890ED88
:10392000000A3E4880ED040A01B0BDEC028B00BDE8
:1039300070B52DED088B04460D469FED3E0AB0EEA6
:10394000408A9FED3D0AF0EE408A9FED3C0AB0EEC2
:10395000409A9FED3B0AF0EE409A9FED2F0AB0EEA1
:1039600040AA9FED2D0AF0EE40AA9FED360AB0EE78
:1039700040BA9FED290AF0EE40BA2088B0F5BE6F3C
:1039800004DDB0EE48AAF0EE49AA08E0208840F233
:10399000DC51884203DAB0EE68AAF0EE69AA6088CA
:1039A000B0F57A7F53DD608840F6020188424EDA36
:1039B000608840F2FA51884204DC608840F2DC51B1
:1039C000884244DA6088A0F2ED5000EE900AF8EEEA
:1039D000E00AB0EE600AFDF741FAF0EE40BA2BEED5
:1039E0002B0A85ED000A608840F2FA51884232DDE8
:1039F00095ED000AB1EE400A26E0000052000020DA
:103A0000580000200000FA4400FEFF46CDCC9C4147
:103A1000B8190020C4190020000000008C170020F5
:103A200094190020D400002000007A44E400002013
:103A3000D8000020B3EAC340D7FAFA3F987310C603
:103A400000007AC50000C03D85ED000A03E01FEDCF
:103A50000E0A85ED000A208800EE100AF8EE400AF2
:103A6000B0EE6A0A10EECA0A85ED010ABDEC088BB9
:103A700070BD90ED000AD0ED010A30EE200A81ED14
:103A8000010A90ED010AD0ED000A30EE600A81EDE6
:103A9000000A70472DE9F0412DED028B04461FED21
:103AA000220A10EE105A1FED240A10EE106A1FEDC4
:103AB000260AB0EE408A1FED280AF0EE408A94ED07
:103AC000000ADFEDB50A80EE201A9FEDB40A21EE60
:103AD000000AB0EE408A94ED010ADFEDAF0A80EEF5
:103AE000201A9FEDAE0A21EE000AF0EE408AB0EEF9
:103AF000480AFDF7B3F9BCEEC00A10EE107A38465A
:103B0000FFF79DFA10EE105AB0EE680AFDF7A6F91D
:103B1000BCEEC00A10EE107A3846FFF790FA10EEAD
:103B2000106AB5EEC08AF1EE10FA03DD01209C495F
:103B3000086007E0B5EEC08AF1EE10FA02D200206C
:103B40009749086028460EF003FF964A03C2F5EE37
:103B5000C08AF1EE10FA03D200209349086007E012
:103B6000F5EEC08AF1EE10FA02DD01208E49086000
:103B700030460EF0EDFE8D4A03C2BDEC028BBDE86F
:103B8000F08100B52DED0A8B81B0B0EE409AF0EED9
:103B9000609A1FED5F0AB0EE40AA9FED850AB0EE75
:103BA00040BA9FED840AB0EE40CAB3EE040AF0EECC
:103BB00040CA1FED670AF0EE40AA1FED690AF0EE59
:103BC00040BAB3EE0B0A69EE800AB3EE0E1A80EE2D
:103BD000810A39EE400AB0EE408A3AEE880AF0EEE9
:103BE00040AA68460BF04AFD00EE100AB8EE400A03
:103BF000F1EE040A20EE200A5FED750A80EE201A2D
:103C0000B0EE41AA6C4890ED000A38EE400A6B48CD
:103C1000D0ED000A7AEE600A80EE201AF0EE41BA8A
:103C200080ED00AA2BEE080A0CEE2A0A0CEEAB0A75
:103C3000F0EE408A1FED8D0AF4EEC08AF1EE10FA24
:103C400004DB1FED900AF0EE408A0AE09FED5C0A6B
:103C5000F4EEC08AF1EE10FA03D29FED590AF0EEAD
:103C6000408A554880ED008AB1EE680A01B0BDEC8B
:103C70000A8B00BD30B587B00446002500200590B2
:103C800006900390049001900290FFF77BFD00BF27
:103C900000BF00BF03F070F9054600BF00BF4948F0
:103CA0000078401C4749087000BF00BF284603F059
:103CB00067F900BF00BF00BF05A92046FFF738FE27
:103CC00000BF00BF00BF03F057F9054600BF00BFAB
:103CD0003C480078401E3B49087008460078A0B96F
:103CE00039480088002809DD00BF00BF284603F0DE
:103CF00047F900BF00BF05F0EBFB0DE000BF00BFC0
:103D0000284603F03DF900BF06E000BF00BF28468B
:103D100003F036F900BF00BF00BF9DED060A8DED30
:103D2000020A9DED050A294880ED030AD0ED030A39
:103D3000B0EE600A2648D0ED000AFFF722FF8DEDB5
:103D4000010A244890ED040A204880ED040A9DED04
:103D5000010A5FEDD40AB4EEE00AF1EE10FA04DDD8
:103D60001FEDD80A8DED010A0CE09DED010ADFED93
:103D7000140AB4EEE00AF1EE10FA03D29FED100A35
:103D80008DED010A03A901A8FFF773FE03A8FFF751
:103D900081FE07B030BD00000000C8430000804431
:103DA000900240429000002088024142980000208A
:103DB000000020420000C842EC000020E800002083
:103DC0000000FAC48C01002050010020B817002028
:103DD000D40000208C1700201CB50121072001F021
:103DE000E3F8C020009001208DF8040000208DF839
:103DF000060003208DF8050001208DF807006946B4
:103E0000FE4800F0D9FD032000906946FC4800F010
:103E1000D3FD302000906946FA4800F0CDFD012026
:103E2000F9490860F949C1F89C02F9490860091D7F
:103E30000860F8490860F849C1F894021CBDF248CE
:103E40000068C043F149C1F898027047F048006823
:103E5000C043F249C1F880027047EE480068C04391
:103E6000ED49C1F89002704710B50446F4B1012C39
:103E700038D1EB484088EB49498A401A00EE900A55
:103E8000F8EEE00AB0EE600AFCF7E8FFF0EE000A98
:103E900080EE201A9FEDE40A21EE000ABCEEC00A73
:103EA00010EE100A81B2DF48C1821BE0DC480088B6
:103EB000DC490988401A00EE900AF8EEE00AB0EEFC
:103EC000600AFCF7CBFFF0EE000A80EE201A9FEDAF
:103ED000D70A21EE000ABCEEC00A10EE100AD14942
:103EE000888000BF00BF10BD0146002059B10129E4
:103EF00002D0022915D10DE0C94A5288C94B5B8A0C
:103F0000D21A10B20DE0C64A1288C64B1B88D21ACC
:103F100010B206E0C24A9288C24B9B8CD21A10B2F1
:103F200000BF00BF704770B52DED028B06469FEDB8
:103F3000C00AB0EE408A3046FFF7D6FF044645F28D
:103F40000235002E7ED0012E02D0022E7BD118E148
:103F5000B3484088B349498A401A00EE900AF8EE07
:103F6000E00AB0EE600AFCF779FF9FEDAF1AF6EEBB
:103F7000000A40EE010ABCEEE00A10EE100A81B21F
:103F8000A8488183A6484088A649498A401A07D58F
:103F9000A448818A808B081A81B2A248418306E036
:103FA000A048818A808B084481B29E4841839D4805
:103FB000808BA0F5966000EE100AB8EEC00AB0EE55
:103FC000408A002C27DD9748408A00EE100AF8EE60
:103FD000400A9FED951A9FED970A00EE810ABCEE0C
:103FE000C00A10EE100A81B28E48C182408A00EEEB
:103FF000100AF8EE400A9FED8C1A9FED8E0A00EE33
:10400000810A30EE080ABCEEC00A10EE100A81B236
:104010008448018329E08348408A00EE100AF8EEC4
:10402000400A9FED811A9FED830A10EE810ABCEED3
:10403000C00A10EE100A81B27A48C182408A00EEAE
:10404000100A01E012E0D7E0F8EE400A9FED761A80
:104050009FED780A10EE810A30EE480ABCEEC00AE5
:1040600010EE100A81B26F480183C5E06C480088E9
:104070006C490988401A00EE900AF8EEE00AB0EEAA
:10408000600AFCF7EBFE9FED691AF6EE000A40EEBF
:10409000010ABCEEE00A10EE100A81B261484181CB
:1040A0005F4800885F490988401A07D55D48418804
:1040B0004089081A81B25B48018106E0594841886D
:1040C0004089084481B25748018156484089A0F58B
:1040D000966000EE100AB8EEC00AB0EE408A002CDE
:1040E00027DD5048008800EE100AF8EE400A9FEDE8
:1040F0004F1A9FED500A00EE810ABCEEC00A10EE86
:10410000100A484988800846008800EE100AF8EE38
:10411000400A9FED461A9FED470A00EE810A30EEF5
:10412000080ABCEEC00A10EE100A81B23D48C180F8
:1041300026E03C48008800EE100AF8EE400A9FEDA9
:104140003B1A9FED3C0A10EE810ABCEEC00A10EE4D
:10415000100A344988800846008800EE100AF8EEFC
:10416000400A9FED321A9FED330A10EE810A30EEBD
:10417000480ABCEEC00A10EE100A81B22948C1807C
:104180003AE0002C1BDD2748C5858585808C00EE34
:10419000100AF8EE400A9FED281A9FED260A00EE5D
:1041A000810ABCEEC00A10EE100A81B21D480185DA
:1041B000808DA0F5167081B21A4841851BE0194820
:1041C000C58500218185808C00EE100AF8EE400A3A
:1041D0009FED191A9FED170A10EE810ABCEEC00A76
:1041E00010EE100A81B20F480185808D00F516701F
:1041F00081B20C48418500BF00BF1FE000000240B3
:104200000004024000080240980240420000404280
:104210008082404290024142000041420080404280
:10422000000000204C170020677B65408FF8084194
:1042300000000000000016448EE3D542BDEC028B66
:1042400070BD10B52DED028B04462046FFF74CFEE5
:1042500008EE100A94B1012C1FD1B8EEC80AFCF781
:10426000FDFDDFED990AB4EEE00AF1EE10FA03DD90
:104270000120BDEC028B10BD0020FAE7B8EEC80AA1
:10428000FCF7ECFDDFED910AB4EEE00AF1EE10FA76
:1042900001DD0120EDE70020EBE70120E9E7B0B107
:1042A000012802D0022834D123E08949498841F20B
:1042B0009C32914203DB1146854A518006E08449D5
:1042C0004988002902DC0021814A518021E080498F
:1042D000098841F2DA62914203DB11467C4A11807F
:1042E00006E07B490988002902DC0021784A118018
:1042F0000FE077498988B42903DBB421744A91809F
:1043000006E073498988002902DC0021704A918007
:1043100000BF00BF704738B504462046FFF7E4FDF4
:10432000054600EE105AB8EEC00AFCF797FDB5EE50
:10433000C00AF1EE10FA75D02046FFF7B0FF204614
:10434000FFF77FFFB8B12046FFF7EDFD4CB1012C20
:1043500002D0022C0ED108E001215E4880F8201026
:1043600008E001205B49887304E00121594880F886
:10437000321000BF17E02046FFF776FD4CB1012C4C
:1043800002D0022C0ED108E00221524880F8201001
:1043900008E002204F49887304E002214D4880F86C
:1043A000321000BF00BF4CB3012C02D0022C4FD101
:1043B00039E003214748C177002D03DD002046493D
:1043C000086002E0012044490860012141488177EA
:1043D000424801F08DFA68460BF050F900EE100AE1
:1043E000B8EE400AF1EE040A20EE200ADFED3C0AA6
:1043F00080EE201A3B4880ED001A29E00320354961
:104400004873002D03DD00203749086002E00120D9
:104410003549086001202F4908730121334801F014
:1044200067FA15E015E003212A4880F83110002DC5
:1044300003DD01202E49086002E000202C490860BD
:104440000121244880F830102A4801F051FA00BFB9
:1044500013E044B1012C02D0022C0DD107E0002161
:104460001C48817708E000201A49087304E0002105
:10447000184880F8301000BF00BF38BD70B1012867
:1044800002D002281ED113E0002903DA0122124BC8
:104490001A6002E00022104B1A6013E0002903DAD0
:1044A0000122114B1A6002E000220F4B1A6009E052
:1044B000002903DA01220E4B1A6002E000220C4BA5
:1044C0001A6000BF00BF70470000A74300000C4304
:1044D000000000204C1700209C02404200040040D5
:1044E00000007A44F0000020848240420000014035
:1044F000940241420044014000B585B001210820EA
:1045000000F0F8FC3F20009000208DF8040003200C
:104510008DF8050001208DF807006946964800F0E7
:104520004BFA0121880300F03FFD0021032000F039
:1045300046FE0121032000F042FE0221032000F08C
:104540003EFE0321084600F03AFE0421032000F05D
:1045500036FE0521032000F032FE0621032000F084
:104560002EFE3F20029000208DF80C000C208DF8CC
:104570000D0001208DF80E0002A802F015F90620AA
:104580008DF8100000208DF8110002208DF8120027
:1045900001208DF8130004A800F01DF907208DF804
:1045A000100004A800F017F908208DF8100004A8E6
:1045B00000F011F909208DF8100004A800F00BF9A3
:1045C0000A208DF8100004A800F005F905B000BD20
:1045D00001216A4880F83B1080F83A10684800686A
:1045E00018B1664880F8391003E00021634880F86C
:1045F00039106348001F006820B101215F4880F82E
:10460000381003E000215D4880F8381001215B4834
:1046100080F83D1080F83C1059480838006818B1FF
:10462000564880F8371003E00021544880F83710CE
:104630000120524981F83600704710B504F0CCF9DA
:10464000012002F017F978B14D480838006820B908
:1046500000214A4880F8371003E00121474880F8DC
:104660003710012002F011F904F0C7F910BD1CB594
:1046700004F0B2F9022002F0FDF8C8B1414800216F
:10468000CDE90010404803780A4608460AF01DFEAE
:104690003B48001F006820B90021384880F83810D6
:1046A00003E00121354880F83810022002F0EDF8CF
:1046B00004F0A3F91CBD1CB504F08EF9042002F02F
:1046C000D9F8C0B12F480021CDE900102E48037859
:1046D0000A4608460AF0F9FD2948006820B9002179
:1046E000264880F8391003E00121244880F8391069
:1046F000042002F0CAF804F080F91CBD1CB504F0D7
:104700006BF9082002F0B6F8C8B11E480021CDE9C7
:1047100000101D4803780A4608460AF0D6FD1848DE
:10472000001D006820B90021144880F83A1003E009
:104730000121124880F83A10082002F0A6F804F08F
:104740005CF91CBD10B504F047F9102002F092F896
:1047500078B10B480830006820B90021074880F87C
:104760003B1003E00121054880F83B10102002F0C7
:104770008CF804F042F910BD000C02404C170020E8
:1047800008824142F4000020F600002009488047DA
:1047900009480047FEE7FEE7FEE7FEE7FEE7FEE723
:1047A000FEE7FEE7FEE7FEE704480549054A064B3B
:1047B00070470000290D000889010008183A002000
:1047C00018400020183C0020183C002032490143CA
:1047D000324A1160704770B5002100230F22C4785F
:1047E0001CB32E4C246804F4E064C4F5E064C4F304
:1047F0000721C1F10404E3B20A4144789C40E1B2CC
:104800008478144021430C07210E254C057861550E
:10481000047804F01F050124AC4005786D11AD004B
:1048200005F1E025C5F8004109E0047804F01F0512
:104830000124AC401B4D0678761145F8264070BD2A
:10484000194A0A400243154B1B1F1A60704739B1C1
:10485000124A121D12680243104B1B1D1A6006E01B
:104860000E4A121D126882430C4B1B1D1A607047C2
:10487000042808D14FF0E021096941F004014FF00C
:10488000E022116107E04FF0E021096921F0040105
:104890004FF0E022116170470000FA050CED00E0D6
:1048A00000E400E080E100E080FFFF1F10B5044657
:1048B0009848844208D10121084600F086FB002177
:1048C000012000F082FB76E09348844208D1012168
:1048D000022000F07AFB0021022000F076FB6AE063
:1048E0008E48844208D10121042000F06EFB002193
:1048F000042000F06AFB5EE08948844208D101216F
:10490000082000F062FB0021082000F05EFB52E06E
:104910008448844208D10121102000F056FB002178
:10492000102000F052FB46E07F48844208D101216C
:10493000202000F04AFB0021202000F046FB3AE056
:104940007A48844208D10121402000F03EFB00213A
:10495000402000F03AFB2EE07548844208D1012146
:10496000802000F032FB0021802000F02EFB22E0AE
:104970007048844208D10121801500F026FB0021F7
:10498000A01500F022FB16E06B48844208D10121FB
:10499000401500F01AFB0021601500F016FB0AE03C
:1049A0006648844207D10121001500F00EFB00216A
:1049B000201500F00AFB10BDF0B50A4600210023C7
:1049C000002400BF3DE0012505FA01F3156805EA62
:1049D00003049C4234D105684F000326BE40B54312
:1049E000056015794E00B5400668354305601579B8
:1049F000012D02D01579022D16D185684F000326AE
:104A0000BE40B543856055794E00B5408668354354
:104A10008560456801268E40B543456045689679B6
:104A20008E40B6B235434560C5684F000326BE4090
:104A3000B543C560D5794E00B540C6683543C560FD
:104A4000491C1029BFD3F0BD4FF6FF710160002152
:104A5000017141718171C171704708B54FF48032A5
:104A60000092009A0A430092009AC261C161009AC2
:104A7000C261C2690092C269009208BD024600206C
:104A800013690B400BB1012000E000207047014684
:104A9000086980B270470246002053690B400BB191
:104AA000012000E0002070470146486980B270474D
:104AB00001837047418370470AB1018300E041835D
:104AC00070474161704742694A4042617047F0B5A2
:104AD000002300244D07ED0E02FA05F3CE1000F17D
:104AE000200555F826504E07F70E0F26BE40B54359
:104AF000CF1000F1200646F82750CE1000F1200517
:104B000055F8265045EA0304CE1000F1200545F87B
:104B10002640F0BD000002400004024000080240B0
:104B2000000C024000100240001402400018024035
:104B3000001C0240002002400024024000280240E5
:104B4000F948006840F00100F74908600020F64984
:104B500008310860F4480068F4490840F2490860E8
:104B6000F348091D0860F348EF4984310860F048B4
:104B70001038091D0860EC48006820F48020EA49DC
:104B800008600020E8490C310860E7498C31086072
:104B900070470021E44A921C11701146087070475A
:104BA00010B501460022002300204A11012A02D13B
:104BB000DD4C236808E0022A03D1DB4C7034236803
:104BC00002E0D94C7434236801F01F0201249440A0
:104BD0001C400CB1012000E0002010BD38B50020C1
:104BE00000900024002500BF3120FFF7D9FF0546C3
:104BF0000098401C00900098B0F5A04F01D0002D07
:104C0000F2D03120FFF7CCFF08B1012400E00024EE
:104C1000204638BD01460020C34A106820F0F80045
:104C200040EAC10010607047C34908607047002126
:104C3000BD4A703211701170012802D004280AD1C7
:104C400004E00121B84A7032117005E00521B64A2E
:104C50007032117000E000BF00BF7047B7490860B4
:104C6000704770B5049C41EA82150126C6EB5306D5
:104C700045EA0645054345EA0465AB4E361D3560F9
:104C800070BDAD4908667047820142EA0172A64BC9
:104C900084331A607047A8498866704710B583014D
:104CA00043EA016343EA02739F4C8834236010BDDA
:104CB000A14908677047A049C864704702460020B0
:104CC000994B0833186820F0EC6042EA010318435E
:104CD000954B08331860704702460020924B08330A
:104CE000186820F0784042EA010318438E4B0833DD
:104CF00018607047014600208B4A0832106820F087
:104D0000030008431060704787480830006800F0CF
:104D10000C00704701460020834A0832106820F0DA
:104D2000F000084310607047014600207E4A0832B8
:104D3000106820F4E05008431060704701460020DE
:104D4000794A0832106820F4604040EAC1001060DF
:104D50007047F0B50021002200240225002602231E
:104D6000714F08373F6807F00C0121B1042905D0C5
:104D7000082937D105E0724F076036E0714F0760B0
:104D800033E0694F3F1D3F68C7F38056664F3F1DB4
:104D90003F6807F03F036EB16A4FB7FBF3F7DFF8E8
:104DA00088C10CF1040CDCF800C0CCF3881C07FBB4
:104DB0000CF40CE0624FB7FBF3F7DFF86CC10CF1B9
:104DC000040CDCF800C0CCF3881C07FB0CF4564F35
:104DD0003F1D3F68C7F301477F1C7D00B4FBF5F71B
:104DE000076002E0564F076000BF00BF4E4F083714
:104DF0003F6807F0F0010909534F7A5C0768D74014
:104E00004760494F08373F6807F4E051890A4E4F21
:104E10007A5C4768D7408760434F08373F6807F49C
:104E20006041490B484F7A5C4768D740C760F0BD86
:104E3000002100F44072B2F5407F0AD13A4A0832AC
:104E4000116821F4F811414A02401143364A0832F0
:104E50001160354A70321268C0F30B031A43324BAB
:104E600070331A60704735494439086070473349D8
:104E70004039086070473649086070470146002095
:104E8000294A8C32106820F01F004A1E1043264A1F
:104E90008C321060704701460020234A8C32106823
:104EA00020F4F8504A1E40EA02201F4A8C3210605B
:104EB0007047014600201C4A8C32106820F44010D4
:104EC00008431060704701460020174A8C32106872
:104ED00020F4400008431060704701460020124A49
:104EE0008C32106820F44030084310607047194934
:104EF0000860704739B10C4A3032126802430A4BDD
:104F000030331A6006E0084A303212688243064B9A
:104F100030331A607047F9B1034A343212680243E1
:104F2000014B34331A601CE000380240FFFFF6EA00
:104F3000103000240030002000004742800E47421D
:104F40000024F40040787D01F7000020FFFCFF0FF3
:104F50005C014742E01147428F4A126882438E4B00
:104F60001A60704739B18C4A121D126802438A4B8D
:104F70001B1D1A6006E0884A121D12688243864B88
:104F80001B1D1A60704739B1834A0C321268024304
:104F9000814B0C331A6006E07F4A0C321268824360
:104FA0007D4B0C331A60704739B17B4A103212685E
:104FB0000243794B10331A6006E0774A10321268C8
:104FC0008243754B10331A60704739B1724A243AE4
:104FD00012680243704B243B1A6006E06E4A243A82
:104FE000126882436C4B243B1A60704739B16A4A9D
:104FF000203A12680243684B203B1A6006E0664A7A
:10500000203A12688243644B203B1A60704739B1E2
:10501000614A1C3A126802435F4B1C3B1A6006E06F
:105020005D4A1C3A126882435B4B1C3B1A60704716
:1050300039B1594A143A12680243574B143B1A606B
:1050400006E0554A143A12688243534B143B1A60E7
:10505000704739B1504A103A126802434E4B103B28
:105060001A6006E04C4A103A126882434A4B103BE1
:105070001A60704739B1484A1C3212680243464BE5
:105080001C331A6006E0444A1C3212688243424BC9
:105090001C331A60704739B13F4A2032126802430C
:1050A0003D4B20331A6006E03B4A203212688243AF
:1050B000394B20331A60704739B1374A24321268AD
:1050C0000243354B24331A6006E0334A2432126817
:1050D0008243314B24331A60704739B12E4A2C3247
:1050E000126802432C4B2C331A6006E02A4A2C32F9
:1050F00012688243284B2C331A60704739B1264A14
:10510000303212680243244B30331A6006E0224AE0
:10511000303212688243204B30331A6070470128C6
:1051200008D11D493C31096841F008011A4A3C3256
:10513000116007E018493C31096821F00801164A5E
:105140003C321160704739B1134A273A1278024352
:10515000114B273B1A7006E00F4A273A1278824318
:105160000D4B273B1A7070470B484030006840F0E9
:105170008070094940310860704701460020064AA6
:10518000283A12680A400AB1012000E00020704766
:1051900001492639087070473438024010B50121A2
:1051A0008803FFF756FF00214FF48040FFF751FFBF
:1051B00010BD1C49086070471B490862704730B534
:1051C00000228B071C0F0F2303FA04F2154B083340
:1051D0008C1053F824309343124C08348D1044F84B
:1051E000253023468C1053F824308C07240F00FA06
:1051F00004F423430B4C08348D1044F8253030BDA3
:105200000949DC3108607047084908607047002090
:1052100004492031096801F4807109B1012000E0DE
:105220000020704700380140000027420004274258
:1052300010B50446FA48844208D101211020FFF736
:1052400008FF00211020FFF704FF57E0F5488442D3
:1052500009D101214804FFF7EBFE00214FF4003093
:10526000FFF7E6FE4AE0F048844209D101218804B4
:10527000FFF7DEFE00214FF48020FFF7D9FE3DE06E
:10528000EA48844209D10121C804FFF7D1FE002178
:105290004FF40020FFF7CCFE30E0E548844209D10E
:1052A00001210805FFF7C4FE00214FF48010FFF72D
:1052B000BFFE23E0DF48844208D101212020FFF710
:1052C000C8FE00212020FFF7C4FE17E0DA48844220
:1052D00009D101218807FFF7ABFE00214FF0804084
:1052E000FFF7A6FE0AE0D548844207D10121400518
:1052F000FFF79EFE00216005FFF79AFE10BD2DE925
:10530000FF4705460E460024A14600BFA046B089CF
:1053100000B100BF2C8A24F44054F08804432C824E
:10532000AC8941F20C608443B088318908437189AB
:1053300008430443AC81AC8A24F44074B08904432C
:10534000AC826846FFF705FDB548854202D0B948F2
:10535000854202D1DDF80C9001E0DDF80890A889C3
:1053600000F4004040B109EBC90000EB09103168BE
:105370004900B0FBF1F707E009EBC90000EB0910A9
:1053800031688900B0FBF1F76420B7FBF0F004014D
:105390002009642101FB1078A88900F4004040B185
:1053A000322000EBC800B0FBF1F000F0070004432E
:1053B00008E0322000EB08106421B0FBF1F000F0AF
:1053C0000F0004432C81BDE8FF874FF416510160A4
:1053D00000218180C18001810C21418100218181D6
:1053E000704710B502460020108A20F470600B88C8
:1053F0004C8823438C882343CC8823431843108252
:1054000010BD0021018041808180C180704721B1A1
:10541000828942F40052828104E082894DF6FF7352
:105420001A4082817047028B02F47F420283028B12
:105430000A430283704721B1828942F4004282818B
:1054400003E08289C2F30E028281704721B1828A11
:1054500042F40062828204E0828A4FF2FF731A40B3
:1054600082827047C1F308028280704701468888B3
:10547000C0F308007047028A4FF6F0731A400282A8
:10548000028A0A430282704721B1828942F00202F5
:10549000828104E082894FF6FD731A408281704751
:1054A00082894FF2FF731A40828182890A43828186
:1054B0007047028A4FF6DF731A400282028A0A435B
:1054C0000282704721B1028A42F48042028204E0E3
:1054D000028A4BF6FF731A4002827047818941F0BD
:1054E00001018181704721B1828A42F008028282E3
:1054F00004E0828A4FF6F7731A4082827047028B6B
:10550000D2B20283028B42EA01220283704721B1A8
:10551000828A42F02002828204E0828A4FF6DF73A0
:105520001A408282704721B1828A42F01002828240
:1055300004E0828A4FF6EF731A4082827047828AB3
:105540004FF6FB731A408282828A0A438282704736
:1055500021B1828A42F00202828204E0828A4FF6FE
:10556000FD731A40828270471AB1838A0B4383828B
:1055700002E0838A8B4383827047F0B503460024A0
:1055800000260025002040F66A17B94200D100BF6E
:105590001846C1F3421401F01F06012707FA06F569
:1055A000012C01D10C3004E0022C01D1103000E0BC
:1055B00014301AB107682F43076002E00768AF4351
:1055C0000760F0BD02460020B1F5007F00D100BFAA
:1055D00013880B400BB1012000E00020704701F45C
:1055E0000072B2F5007F00D100BFCA43028070474D
:1055F00070B50246002400230025002040F66A16FC
:10560000B14200D100BFC1F3421501F01F030126D2
:1056100006FA03F3012D13D19689334017E00000F9
:10562000001001400044004000480040004C004091
:10563000005000400014014000780040007C004011
:10564000022D02D1168A334001E0968A33400C12B3
:10565000012606FA04F41688344013B10CB1012077
:1056600000E0002070BD10B50022002340F66A144F
:10567000A14200D100BF0A1201249440A3B2DC432E
:10568000048010BD10B50446FE48844208D10121B3
:105690000846FFF7DEFC00210120FFF7DAFC9DE061
:1056A000B4F1804F08D101210846FFF7C1FC002169
:1056B0000120FFF7BDFC91E0F348844208D10121AD
:1056C0000220FFF7B5FC00210220FFF7B1FC85E0C6
:1056D000EE48844208D101210420FFF7A9FC0021F3
:1056E0000420FFF7A5FC79E0E948844208D10121B4
:1056F0000820FFF79DFC00210820FFF799FC6DE0D2
:10570000E448844208D101211020FFF791FC0021D8
:105710001020FFF78DFC61E0DF48844208D10121B1
:105720002020FFF785FC00212020FFF781FC55E0B9
:10573000DA48844208D101210220FFF78AFC0021C7
:105740000220FFF786FC49E0D548844209D10121B7
:105750000804FFF77EFC00214FF48030FFF779FC4E
:105760003CE0D048844209D101214804FFF771FC94
:1057700000214FF40030FFF76CFC2FE0CA48844250
:1057800009D101218804FFF764FC00214FF4802037
:10579000FFF75FFC22E0C548844208D10121402088
:1057A000FFF746FC00214020FFF742FC16E0C0480E
:1057B000844208D101218020FFF73AFC002180209B
:1057C000FFF736FC0AE0BB48844207D1012180156F
:1057D000FFF72EFC0021A015FFF72AFC10BD0022C8
:1057E0000288A84B98420ED0AC4B98420BD0B0F137
:1057F000804F08D0A44B984205D0A44B984202D0C9
:10580000A34B984204D14FF68F731A404B881A432A
:10581000A04B984207D0A04B984204D04FF6FF43CC
:105820001A400B891A4302804B68C3620B880385B8
:10583000944B984202D0994B984201D18B7A0386BF
:105840000123838270474FF0FF31416000210180C6
:1058500001814180817270470185828270470A46CA
:10586000002101884FF68F73194011430180704762
:1058700041627047C16270470146486A70470146FD
:10588000088D704721B1028842F00202028004E0D4
:1058900002884FF6FD731A400280704721B10288DA
:1058A00042F00402028004E002884FF6FB731A40C3
:1058B0000280704721B1028842F08002028004E039
:1058C00002884FF67F731A400280704702884FF6B5
:1058D000F7731A40028002880A43028070470288E8
:1058E0004FF6FF431A40028002880A430280704745
:1058F00021B1028842F00102028004E002884FF6E2
:10590000FE731A400280704770B500240022002305
:10591000058C4FF6FE7635400584028C8388048B17
:105920004FF68F752C40B51E2C400D882C43751EEC
:105930002A408D892A434D882A43524DA84202D0DD
:10594000564DA84213D14FF6F7752A40CD892A4308
:105950004FF6FB752A408D882A434FF6FF652B4092
:105960004FF6FF552B400D8A2B434D8A2B438380E6
:1059700004838D684563028470BD70B500240022E5
:105980000023058C4FF6EF7635400584028C838822
:10599000048B48F6FF752C404FF6FF452C400D88D0
:1059A0004FF6FF7606EA05252C434FF6DF752A40B1
:1059B0008D8906EA05152A434D8806EA05152A430E
:1059C000304DA84202D0354DA8421DD14FF67F750B
:1059D0002A40CD894FF6FF7606EA05152A434FF691
:1059E000BF752A408D8806EA05152A434FF6FF3514
:1059F0002B404FF2FF752B400D8A06EA85052B439D
:105A00004D8A06EA85052B43838004838D68856370
:105A1000028470BD70B5002400220023058C4FF66F
:105A2000FF6635400584028C8388848B4FF68F7522
:105A30002C404FF6FC752C400D882C434FF6FF553B
:105A40002A408D894FF6FF7606EA05252A434D88C0
:105A500006EA05252A430B4DA84202D00F4DA84265
:105A600038D14FF2FF752A40CD894FF6FF7606EA0E
:105A700005252A434FF6FF352A408D8806EA05257D
:105A80002A4319E0000001400004004000080040E3
:105A9000000C0040001000400014004000040140D1
:105AA000004001400044014000480140001800400F
:105AB000001C0040002000404EF6FF752B404DF6C4
:105AC000FF752B400D8A06EA05152B434D8A06EA21
:105AD00005152B43838084838D68C563028470BD64
